:020000040000FA
:1000000000040020D9000000E70000003F020000CB
:1000100000000000000000000000000000000000E0
:10002000000000000000000000000000EB000000E5
:100030000000000000000000ED000000CB02000006
:10004000D5020000E5020000E7020000E90200001E
:10005000F1000000F1000000F1000000910200003A
:10006000F10000003D020000EB020000ED02000084
:100070008901000047010000250100003501000052
:1000800075020000F1000000F1000000F100000026
:100090008F0200000D030000930200008D0200009B
:1000A000450100000000000000000000000000000A
:1000B0000000000000000000000000000000000040
:1000C0000448854600F01CF8004800472D03000056
:1000D000C046C04600040020064880F30888064851
:1000E000804706480047FEE7FEE7FEE7FEE7FEE73B
:1000F000FEE7000000040020CD020000C100000067
:10010000064C0125064E05E0E36807CC2B430C3C6A
:1001100098471034B442F7D3FFF7D6FF5C030000D2
:100120006C0300000248416903221143416170479A
:100130008004014002484169032211434161704734
:10014000800501407047704710B50D4A0B4890621A
:100150000020C043506200245462D113C80341629E
:10016000816AC0239943816281680904FCD46420B8
:1001700000F0A2F803481060946210BD837A00007A
:1001800080000040FF110000704770B50D46044626
:100190000121C80200F07EF86868002805D0012817
:1001A0006068296809D0884308E060682968884346
:1001B000606020682968084304E0084360602068A4
:1001C000296888432060A86800282069296801D030
:1001D000084300E088432061E8680028A069296896
:1001E00001D0084300E08843A06128690028E06945
:1001F000296801D0084300E08843E06170BD416395
:100200007047016370470021016041608160C160F7
:100210000161704700B585B06846FFF7F4FF684696
:10022000FFF7F1FF01200190C820009069460248C5
:10023000FFF7ABFF05B000BD000D014070477047F0
:1002400010B572B605480649886200F00BF8FFF752
:10025000E1FF642000F030F862B610BD837A000040
:10026000800000400F200249800248607047000073
:100270000017014003490320486003494A690243CB
:100280004A617047800C014080040140704770470C
:1002900070477047074A064B93620129D16904D021
:1002A0008143D1610020906270470143F9E700006B
:1002B000837A00008000004008B50021009181424F
:1002C00002D200BF491CF9E708BD704700B5FFF72F
:1002D0003BFF00BD0248016A0422114301627047DE
:1002E0000006014070477047704770470648016A32
:1002F000C906016A01D5102203E0890603D5016A07
:10030000202211430162704700110140704702E052
:1003100008C8121F08C1002AFAD170477047002090
:1003200001E001C1121F002AFBD17047FFF788FFCF
:10033000084D094C40212846FFF763FF2046FFF790
:10034000BBFF40212846FFF75AFF2046FFF7B4FFC6
:10035000F0E70000000D0140FFFF0F006C030000FC
:0C03600000000020000400001E0300004C
:04000005000000C136
:00000001FF
