:020000040000FA
:1000000000040020D9000000E70000008D0100007E
:1000100000000000000000000000000000000000E0
:10002000000000000000000000000000EB000000E5
:100030000000000000000000ED000000C30100000F
:10004000CD010000DD010000DF010000E101000042
:10005000F1000000F1000000F1000000AD0100001F
:10006000F10000008B010000E3010000E501000049
:100070008901000047010000250100003501000052
:1000800091010000F1000000F1000000F10000000B
:10009000AB01000005020000AF010000A901000053
:1000A000450100000000000000000000000000000A
:1000B0000000000000000000000000000000000040
:1000C0000448854600F01CF800480047250200005F
:1000D000C046C04600040020064880F30888064851
:1000E000804706480047FEE7FEE7FEE7FEE7FEE73B
:1000F000FEE7000000040020C5010000C100000070
:10010000064C0125064E05E0E36807CC2B430C3C6A
:1001100098471034B442F7D3FFF7D6FF2802000007
:1001200038020000024841690322114341617047CF
:100130008004014002484169032211434161704734
:10014000800501407047704710B50D4A0B4890621A
:100150000020C043506200245462D113C80341629E
:10016000816AC0239943816281680904FCD46420B8
:1001700000F01EF803481060946210BD837A0000FE
:1001800080000040FF11000070477047704700007A
:1001900003490320486003494A6902434A617047A2
:1001A000800C0140800401407047704770477047E1
:1001B00008B500210091814202D200BF491CF9E735
:1001C00008BD704700B5FFF7BFFF00BD0248016AD8
:1001D00004221143016270470006014070477047D6
:1001E000704770470648016AC906016A01D51022A6
:1001F00003E0890603D5016A20221143016270479A
:1002000000110140704702E008C8121F08C1002A0F
:10021000FAD170477047002001E001C1121F002A87
:10022000FBD170470020704738020000000000201A
:080230000004000016020000AA
:04000005000000C136
:00000001FF
