:020000040800F2
:10000000E8090020A10100088B200008F31C00086B
:100010008920000891080008B927000800000000A6
:10002000000000000000000000000000292300087C
:1000300093080008000000008D2000082B23000812
:10004000BB010008BB010008BB010008BB010008A0
:10005000BB010008BB010008BB010008BB01000890
:10006000BB010008BB010008BB010008BB01000880
:10007000BB010008BB010008BB010008BB01000870
:10008000BB010008BB0100084D070008BB010008C8
:10009000BB010008BB010008BB010008BB01000850
:1000A000BB010008D5230008BB010008BB01000804
:1000B000BB010008BB010008BB010008BB01000830
:1000C000BB010008BB010008BB010008BB01000820
:1000D000BB010008BB010008BB010008BB01000810
:1000E000BB010008BB010008BB010008BB01000800
:1000F000E1230008BB010008BB010008BB010008A8
:10010000BB010008BB010008BB010008BB010008DF
:10011000BB010008BB010008BB010008BB010008CF
:10012000BB010008BB010008BB010008BB010008BF
:10013000BB0100080000000000000000BB01000837
:10014000BB010008BB010008BB010008BB0100089F
:10015000BB010008BB010008BB010008BB0100088F
:10016000BB010008BB010008BB010008BB0100087F
:10017000BB010008BB0100080000000000000000F7
:10018000BB010008BB010008DFF810D000F05CFAEA
:1001900000480047A5330008AFF30080E8090020BD
:1001A0000648804706480047FEE7FEE7FEE7FEE711
:1001B000FEE7FEE7FEE7FEE7FEE7FEE7C5230008F1
:1001C000890100082DE9F05F0546002092469B4614
:1001D00088460646814640241BE02846414647465D
:1001E000224600F069F853465A46C01A914110D38E
:1001F00011461846224600F050F82D1A67EB010808
:100200004F4622460120002100F047F817EB000975
:100210004E41201EA4F10104DFDC484631462A4647
:100220004346BDE8F09F40EA01039B0703D009E085
:1002300008C9121F08C0042AFAD203E011F8013BD2
:1002400000F8013B521EF9D27047D2B201E000F82B
:10025000012B491EFBD270470022F6E710B513466A
:100260000A4604461946FFF7F0FF204610BD30B598
:100270000B46014600202022012409E021FA02F564
:100280009D4205D303FA02F5491B04FA02F52844FE
:10029000151EA2F10102F1DC30BD202A04DB203A58
:1002A00000FA02F1002070479140C2F1200320FAC9
:1002B00003F3194390407047202A04DB203A21FAC7
:1002C00002F00021704721FA02F3D040C2F120026F
:1002D00091400843194670472DE9FE4F804681EA58
:1002E0000300C00F0C46009021F0004123F00045B0
:1002F000B8EB0200A94105D24046214690461C4673
:100300000B46024623F00040104347D0270DC7F3A9
:100310000A00C3F30A510290401A019040286BDA98
:10032000C3F3130040F4801B0098924620B10023D1
:10033000D2EB030A63EB0B0B01985946C0F1400264
:100340005046FFF7AAFF06460D4650465946019A09
:1003500000F08CF910EB08006141002487EA11528B
:1003600084EAE7731A4340D0009A62B3019A012AE3
:100370004FEA075215DC001B61EB02014FF000420F
:1003800002EA0752CDE90042001C41F580113246D5
:100390002B4600F08CF903B0BDE8F08F40462146B3
:1003A000F9E7001B61EB0201001C41F58013001806
:1003B0005B412018A2F5001747EB030140EAD57016
:1003C000B6196D4111E06D084FEA360645EAC07571
:1003D0004FEA0752001B61EB0201001C41F580113E
:1003E00049084FEA30000019514132462B4603B00C
:1003F000BDE8F04F00F04CB9009801224000002306
:10040000D0EB020263EBE073009821464FEAE07400
:10041000B8EB000061EB0401E9E783F000435BE720
:1004200081F0004158E72DE9FE4F81EA030404F012
:10043000004421F0004100944FF0000B23F00043F2
:1004400050EA01045ED052EA03045BD0C3F30A54BD
:10045000C1F30A552C44A4F2F3340194A0FB0254D6
:10046000C1F3130141F48011C3F3130343F4801368
:1004700001FB024400FB034E840A970A44EA8154BC
:1004800047EA8357A4FB076802958D0A05FB078599
:100490004FEA932C04FB0C542705029D4FEA0658A3
:1004A00047EA1637B5EB08056EEB070C870E920E80
:1004B00047EA811742EA8312A7FB0201B6EB0B0160
:1004C00064EB00042B0D43EA0C335E1844EB1C5024
:1004D000DA465146E7FB0201C5F313044FEA0B333A
:1004E00043EA14534FEA0432019C43EA0603A4F1A1
:1004F0000C040294009CCDE900B400F0D8F803B0DD
:10050000BDE8F08F00200146F9E72DE9F04D81EAC2
:10051000030404F0004B21F0004514464FF0000A9C
:1005200023F0004150EA050220D054EA01021DD018
:10053000C5F30A570246C5F31303C1F31300C1F311
:100540000A5640F4801543F48013A7EB0608101BED
:10055000D64608F2FD3873EB050002D308F1010816
:1005600001E092185B41B8F1000F03DA0020014668
:10057000BDE8F08D00204FF48011064684460EE061
:10058000171B73EB050705D3121B63EB050306432B
:100590004CEA010C49084FEA300092185B4150EADE
:1005A0000107EDD152EA030012D082EA040083EA87
:1005B0000501084305D0101BAB4106D201220023E0
:1005C00006E000224FF0004302E06FF001025310FA
:1005D0001AEB06004CEB085110EB0A0041EB0B0143
:1005E000BDE8F04D00F054B8C1F30A52C1F3130155
:1005F00040F2FF3341F480119A4202DA00200146B2
:10060000704740F233439A42A2F2334202DC524234
:10061000FFF752BEFFF741BE30B5041E71F1000472
:1006200004DB4FF00044404264EB0101141E73F1FF
:10063000000405DB1C464FF00043524263EB040309
:10064000994208BF904230BD064C074D06E0E06875
:1006500040F0010394E8070098471034AC42F6D309
:10066000FFF796FD2C3400084C340008202A06DBE6
:10067000CB17203A41FA02F043EAE07306E041FA70
:1006800002F3D040C2F1200291400843194670475E
:1006900010B5141E73F1000408DA401C41F100018A
:1006A00092185B411A4301D120F0010010BD2DE9E1
:1006B000F04D92469B4611B1B1FA81F202E0B0FAD8
:1006C00080F220329046FFF7E8FD04460F4640EAEC
:1006D0000A0041EA0B0153465A46084313D011461B
:1006E00053EA010019D0C8F140025046FFF7E4FD7B
:1006F00005460E46504659464246FFF7CEFD084392
:1007000005D0012004E020463946BDE8F08D0020E8
:10071000054346EAE0762C4337430A986305E40A2A
:10072000A0EB08000022FD0A44EA47540A3002D533
:1007300000200146E9E7010510196941DDE9084596
:1007400000196941BDE8F04DA2E7000010B504486A
:1007500000F02AFABDE81040024800F025BA000077
:100760001000002058000020464910B54A6822F4C5
:1007700040324A604A6843681A434A6001684A68DE
:1007800022F480724A6001684A68036942EA0322DF
:100790004A6001684A6822F040724A6001684A680B
:1007A00083681A434A6001688A6822F400628A609A
:1007B00001688A68C3681A438A60816A6FF0706250
:1007C000D14201688A6822F070628A6001688A6892
:1007D0000CD0836A1A438A6001688A6822F040520A
:1007E0008A6001688A68C36A1A4301E022F04052B5
:1007F0008A6001688A6822F002028A6001688A6859
:10080000037E42EA43028A6090F8201000290168C2
:100810004A680FD042F400624A6001684A6822F4D4
:1008200060424A6001684A68174C436A04EB4333EC
:100830001A4301E022F400624A600168CA6A22F4A5
:100840007002CA620168CA6A838B104C04EB0353BE
:100850001A43CA6201688A6822F400728A600168D9
:100860008A6890F8303042EA43228A6001688A68D8
:1008700022F480628A6001688A68406942EA8020C6
:10088000886010BD0023014000E0FFFF0000F0FF82
:10089000FEE7704772B6FEE770B590F83C20694DF0
:1008A000012A19D0012280F83C200A680723046835
:1008B000092A13D9E6680A3A02EB420293409E43A2
:1008C000E6600A788B680A3A02EB420293400268BB
:1008D000D4682343D36010E0022070BD266902EB88
:1008E000420293409E4326610A788B6802EB4202E3
:1008F000934002681469234313610268936B23F4E5
:10090000401393630268936B0C8A4F4E06EB0454BA
:10091000234393630A790B7CD21AD21C02EB820226
:100920001F2393400268946B9C4394630A790B7C69
:10093000D21AD21C02EB82030A8892B29A40036850
:100940009C6B22439A638A69AA420268936823F4E3
:1009500070239360026893680CD08C692343936082
:100960000268936823F44013936002689368CC692B
:10097000234301E023F4401393604A7D002A026878
:10098000536802D043F4806301E023F48063536032
:100990000A7D002A0268536802D043F4805301E0C4
:1009A00023F4805353604A68012A16D0022A1FD0CC
:1009B000032A026827D0136A6FF30B0313620268DD
:1009C000136ACC6823431362214B04681F4A9C427C
:1009D00027D10C68122C20D023E0026853696FF3F2
:1009E0000B03536102685369CC6823435361EBE7FF
:1009F000026893696FF30B03936102689369CC6893
:100A000023439361E0E7D3696FF30B03D36102687B
:100A1000D369CC682343D361D6E7546844F4800497
:100A2000546004689C4208D10968102901D011293A
:100A300003D1516841F400015160002180F83C105D
:100A4000084670BD01000F000000F0FF00230140C8
:100A5000002001407047000078B50024009490F811
:100A60003C20012A19D0012280F83C200A68072383
:100A70000568092A13D9EE680A3A02EB420293404C
:100A80009E43EE600B788A680A3B03EB43039A406F
:100A90000368DD682A43DA6010E0022078BD2E6921
:100AA00002EB420293409E432E610B788A6803EB6F
:100AB00043039A4003681D692A431A614A681F2349
:100AC000072A13D205686E6B521E02EB8202934016
:100AD0009E436E630B790A885B1E92B203EB83031D
:100AE0009A4003685D6B2A435A6327E005680D2A24
:100AF00012D22E6BD21F02EB820293409E432E63D2
:100B00000B790A88DB1F92B203EB83039A400368D8
:100B10001D6B2A431A6311E0EE6A0D3A02EB820262
:100B200093409E43EE620B790A880D3B92B203EB31
:100B300083039A400368DD6A2A43DA62164B05682C
:100B4000144A9D4206D10D68122D03D1556845F413
:100B50008005556005689D4218D10B68102B01D0A7
:100B6000112B13D1536843F4000353600968102913
:100B70000CD10A490A4A0968B1FBF2F101EB810183
:100B8000490000E0491E00910029FBD180F83C405B
:100B9000002078BD00230140002001400C0000200F
:100BA00040420F007047704770B504460068066801
:100BB000456816F0020F05F020012AD049B3216CD8
:100BC000C90603D4216C41F400712164816811F0DD
:100BD000405F17D1217EA9B9C16A11F4700F02D00C
:100BE000816849050ED4416821F020014160206CE4
:100BF00020F480702064206CC00403D4206C40F08A
:100C0000010020642046FFF7CDFF21686FF012003D
:100C1000086016F0040F05F0800132D089B3206C13
:100C2000C00603D4206C40F4005020642068816822
:100C300011F4401F1ED1816B11F4401F02D0816856
:100C4000490517D44168490514D4816811F0405F03
:100C500010D1217E71B9416821F080014160206C82
:100C600020F480502064206CC00503D4206C40F038
:100C7000010020642046FFF7EDFE21686FF00C00B4
:100C8000086016F0010F05F040010FD071B1206827
:100C90000068C0070AD0206C40F4803020642046F1
:100CA00000F043F821686FF00100086016F0200F93
:100CB00005F080610ED000290CD0606C40F002007D
:100CC000606420686FF0200505602046FFF76BFF29
:100CD0002068056070BD70B504004FF0000503D0BA
:100CE000206C002610B107E0012070BD204600F006
:100CF0001DF8666484F83C60206CC00610D4206C3B
:100D000020F4885040F0020020642046FFF72CFDBC
:100D10006664206C20F0020040F00100206400E0D6
:100D2000012584F83C60284670BD7047F0B587B057
:100D3000044614216846FFF78FFA1B49194F2668AD
:100D40000025194A1439072303241848BE4207D145
:100D5000166846F480761660126802F4807209E024
:100D6000134FBE421CD1166846F400761660126816
:100D700002F4007205920A6842F004020A600968EF
:100D800001F0040105918DE83800694600F012F881
:100D900000220121122000F079F9122000F068F9F8
:100DA00007B0F0BD00200140443802400008024076
:100DB000002101402DE9F84FDFF8BCA100220125F8
:100DC00003264FF00F090AF1040BAAF1040E00BF2D
:100DD0000B6805FA02F42340A34270D10F7907F0A3
:100DE0000307012F01D0022F16D187684FEA42086E
:100DF00006FA08FC27EA0C07D1F80CC00CFA08FC2C
:100E00004CEA070CC0F808C04768A7430C79C4F344
:100E1000001494403C4344600C79E443A4070AD096
:100E2000C4684FEA420C06FA0CF7BC438F6807FA15
:100E30000CF72743C7600C7904F00304022C12D18D
:100E4000D40800EB840CDCF820405707FF0E09FAA9
:100E500007F824EA0804D1F8108008FA07F848EAED
:100E60000408CCF8208004684FEA420C06FA0CF71C
:100E7000BC430F7907F0030707FA0CF72743076015
:100E80004C6814F4403F70D03C4C276847F48047CE
:100E90002760246822F0030704F480440094384C4F
:100EA00007EB040CDCF8084897074FEA177809FAB3
:100EB00008F7BC43334FB84202D1002724E054E086
:100EC000314FB84201D101271EE0304FB84201D165
:100ED000022719E02E4FB84201D1032714E02D4F0D
:100EE000B84201D104270FE02B4FB84201D10527AA
:100EF0000AE02A4FB84201D1062705E0284FB84240
:100F000001D1072700E0082707FA08F72743CCF8A4
:100F10000878DAF800405746D1F804C09C435FEAED
:100F2000CC2C00D51C433C60DBF800405F46D1F878
:100F300004C09C435FEA8C2C00D51C433C60DEF867
:100F400000407746D1F804C09C435FEA8C3C00D552
:100F50001C433C60084F083F3C68D1F804C09C43E8
:100F60005FEACC3C00D51C433C60521C102AFFF4C5
:100F70002FAFBDE8F88F0000083C01404438024024
:100F8000003001400000024000040240000802401E
:100F9000000C024000100240001402400018024001
:100FA000001C02400AB1816170470904FBE70000A0
:100FB00001488068704700000000002002488168F6
:100FC0000278114481607047000000200B4810B582
:100FD000016841F400710160016841F480610160C1
:100FE000016841F480710160032000F06FF80F2068
:100FF00000F006F800F024F8002010BD003C02408C
:1010000070B50D4D04464FF47A712878B1FBF0F0BD
:101010000A490968B1FBF0F000F0EAFA48B9102C6F
:1010200007D200222146501E00F030F800206C60EC
:1010300070BD012070BD0000000000200C000020E9
:101040000A4808B5016841F480410160006800F475
:10105000804000900548001F016841F08051016008
:10106000006800F08050009008BD00004438024045
:10107000002809DB00F01F02012191404009800097
:1010800000F1E020C0F8001170470000F0B40E4BF2
:101090001B680C46C3F30223C3F10705042D00D9D6
:1010A0000425191D072901D2002300E0DB1E0126BB
:1010B00006FA05F1491E214099409E40761E1640D1
:1010C0003143F0BC01F004BD0CED00E0064900F036
:1010D000070208684FF6FF03184040EA0220034A5F
:1010E00010430860704700000CED00E00000FA05B6
:1010F0002DE9F0470E46050065D0DFF81481D8F8D9
:101100000000F7B200F00700B04207D288F8007084
:10111000D8F8000000F00700B04254D128683D4CD8
:10112000810712D5400703D5206840F4E0502060C5
:101130002878000703D5206840F4604020602068CC
:10114000A96820F0F000084320602878C0072DD05F
:10115000304968680839012812D0022813D00328C2
:1011600011D00968890700292DDA216821F00301CF
:1011700001432160FFF71CFF814641F2883A0EE0EF
:1011800009688903EFE709688901ECE7FFF710FFB9
:10119000A0EB0901514502D90320BDE8F087206882
:1011A000696800F00C00B0EB810FEFD1D8F80010A7
:1011B000404601F00701B14207D90770006800F00E
:1011C0000700B04201D00120E7E72878400705D5A5
:1011D0002068E96820F4E050084320602878000780
:1011E00006D52068296920F4604040EAC1002060EB
:1011F00000F018F82168084AC1F30311515CC84097
:101200000649086006480068FFF7FAFE0020C4E7B8
:10121000003C024008380240F83300080C0000206F
:1012200004000020154810B5006810F00C021448A6
:1012300013D04110042A0FD0082A0ED10F4C241FBE
:101240002268236802F03F025B0207D52068C0F3E2
:101250008810A0FB010106E0084610BD2168C1F31B
:101260008811A1FB00010023FEF7ACFF2168C1F348
:101270000141491C4900B0FBF1F010BD08380240A3
:101280000024F4002DE9F84F04006ED02078DFF838
:101290004C93C007A9F104054AD009F10400016884
:1012A000C1F38101012908D00068C0F38100022840
:1012B0000AD1D9F80000400206D52868800337D546
:1012C00060680028E1D033E06068B0F5803F10D05E
:1012D000B0F5A02F286810D020F48030286028684E
:1012E00020F4802028606068A8B1FFF761FE064600
:1012F0000DE0286840F48030F4E740F48020286056
:10130000F7E700BFFFF754FE801B642873D82868F6
:101310008003F7D50CE0FFF74BFE064605E000BF63
:10132000FFF746FE801B6428F0D828688003F7D4B6
:101330002078DFF8AC8280074FF0000A3ED5A7483E
:10134000001D016811F00C0F08D00068C0F3810087
:1013500002280BD1D9F80000400207D42868800782
:1013600016D5E068012800D112E033E1E068B8B199
:101370000120C8F80000FFF71BFE064605E000BF8D
:10138000FFF716FE801B0228C0D828688007F7D513
:101390002868216920F0F80040EAC10028600DE0CB
:1013A000C8F800A0FFF704FE064604E0FFF700FEC1
:1013B000801B02281FD828688007F7D420780007F0
:1013C00022D5864F87486169703771B1012101606C
:1013D000FFF7EEFD064604E0FFF7EAFD801B02285A
:1013E00009D838688007F7D50EE0C0F800A0FFF7ED
:1013F000DFFD064605E082E0FFF7DAFD801B0228EC
:101400007DD838688007F7D42078400768D5DFF8A2
:10141000CCB100270BF13C0BDBF80000C0000BD473
:10142000DBF8001041F08051CBF80010DBF8000031
:10143000012700F0805000906B4E3068C00510D43A
:10144000306840F480703060FFF7B2FD009005E036
:10145000FFF7AEFD0099401A022850D83068C00549
:10146000F6D55E4EA0686C3601280FD0052830688E
:1014700010D020F001003060306820F004003060AF
:10148000A068B8B1FFF794FD00900FE0306840F01D
:101490000100F4E740F004003060F7E7FFF788FD53
:1014A0000099411A41F28830814266D8306880073D
:1014B000F4D50EE0FFF77CFD009007E0FFF778FD24
:1014C0000099411A41F28830814256D8306880072D
:1014D000F4D42FB1DBF8001021F08051CBF80010CC
:1014E000A069C8B33D49091D0968C1F381010229FA
:1014F0004AD00228504607D0C8F8600000E03CE01F
:10150000FFF756FD04463BE04746C8F86000FFF78A
:101510004FFD064605E000BFFFF74AFD801B02288D
:101520002BD828688001F7D4D4E907010843A16AC1
:101530002E4A490802EB0141626A41EA82110843DE
:1015400094F82C1040EA0161C9F8001001203866B7
:10155000FFF72EFD044606E03EE000BFFFF728FD42
:10156000001B022809D828688001F7D534E000BFA5
:10157000FFF71EFD001B022802D90320BDE8F88FEB
:1015800028688001F4D427E00128F7D0D9F80000BA
:10159000E26900F4800191421CD1226A00F03F010F
:1015A000914217D147F6C071626A0140B1EB821FC8
:1015B00010D1A26A4FF0FF3300F4403103EB520226
:1015C000B1EB024F06D194F82C1000F07060B0EB34
:1015D000016F01D00120D1E70020CFE7043802409D
:1015E00000004742800E4742007000400000FFFFAD
:1015F00010B5401EB0F1807F01D3012010BD4FF027
:10160000E02460610F21601701F062FA0020A06100
:1016100007202061002010BD7047704710B590F87A
:101620003C20012A22D0012280F83C20CA688C6824
:1016300022F4407222434C6822F4806222430C68F8
:1016400022F4006222430C6922F4805222434C6946
:1016500022F400522243C969002322F480420A4343
:1016600001684A6480F83C30002010BD022010BDA3
:1016700070B588B00E46040004D094F83D000025F3
:1016800018B107E0012008B070BD84F83C50204636
:1016900000F056F8022084F83D00211D206800F07B
:1016A000A5FEB36831680322206801F033F8206892
:1016B000816921F00C0181612068816972681143A0
:1016C00081612068416841F0800141602068816843
:1016D00021F0700181602068816841F040018160E3
:1016E0002068816821F0070181602068816841F0ED
:1016F0000401816070200595049506950395029577
:101700000090F06801906946206800F019FF206899
:10171000416821F0700141602068416841F050014A
:101720004160012084F8460084F83E0084F83F00C0
:1017300084F8420084F8430084F83D000020A2E7CA
:1017400010B586B0044614216846FEF785FD17499A
:101750002068884228D116480021026842F002021F
:101760000260006800F00200059011481438026819
:1017700042F004020260006800F0040005904FF49B
:10178000E07000900220CDE9010103900320049055
:1017900069460848FFF70EFB002202212C20FFF7C4
:1017A00075FC2C20FFF764FC06B010BD000401405E
:1017B000443802400008024070B590F83C20012AED
:1017C00032D0012480F83C40022280F83D2003689A
:1017D0005A689D6822F070060A6832435A60134BBB
:1017E00002689A4214D0B2F1804F11D0104B9A4245
:1017F0000ED0104B9A420BD00F4B9A4208D00F4B91
:101800009A4205D00E4B9A4202D00E4B9A4204D116
:10181000496825F080031943916080F83D4000211C
:1018200080F83C10084670BD022070BD00000140E9
:101830000004004000080040000C0040000401408B
:10184000004001400018004010B5040003D094F897
:101850003D0010B107E0012010BD002084F83C00DD
:10186000204600F01FF8022084F83D00211D20686A
:1018700000F0BCFD012084F8460084F83E0084F8A6
:101880003F0084F8400084F8410084F8420084F866
:10189000430084F8440084F8450084F83D000020AB
:1018A00010BD000008B500680B49884212D10B48F2
:1018B000016841F0010101600068002200F00100B0
:1018C000009011461920FFF7E1FBBDE80840192000
:1018D000FFF7CEBB08BD00000000014044380240C5
:1018E00070B5044690F83C000025012817D0012669
:1018F00084F83C60022084F83D002068826822F071
:10190000770222F47F4282600868502838D00DDCCC
:1019100020284FD005DC90B3102811D14AE00220D6
:1019200070BD302846D040280AD13BE060282FD037
:1019300070280DD0B0F5805F03D0B0F5005F12D0F5
:10194000012584F83D60002084F83C00284670BDE5
:10195000CB68D1E90121206800F0B0FD20688168E2
:1019600041F0770109E0CB68D1E90121206800F05E
:10197000A5FD2068816841F480418160E1E719E0BC
:10198000CA684968206800F0B3FE5021206806E06C
:10199000CA684968206800F0FDFE6021206800F0F8
:1019A00097FDCEE7CA684968206800F0A1FE402193
:1019B0002068F4E7226801461046F0E770472DE9F9
:1019C000F04104460068C66805694FF00007A907A2
:1019D00013D5B10711D5F91E0161012020772068C8
:1019E00080698007204602D0FFF7E8FF04E000F09E
:1019F000BDF8204600F04FF92777680716D5700725
:101A000014D521686FF00400086102202077206857
:101A1000806910F4407F204602D0FFF7CFFF04E03A
:101A200000F0A4F8204600F036F92777280715D5EE
:101A3000300713D521686FF0080008610420207773
:101A40002068C0698007204602D0FFF7B7FF04E096
:101A500000F08CF8204600F01EF92777E80616D52E
:101A6000F00614D521686FF0100008610820207777
:101A70002068C06910F4407F204602D0FFF79EFF27
:101A800004E000F073F8204600F005F92777E80736
:101A900008D0F00706D021686FF0010008612046E9
:101AA00000F0FAF8280608D5300606D521686FF050
:101AB000800008612046FFF7AFFD680608D5700674
:101AC00006D521686FF040000861204600F010F94B
:101AD000A8060AD5B00608D521686FF02000086175
:101AE0002046BDE8F041FFF798BDBDE8F081000059
:101AF00070B586B0044614216846FEF7ADFB174961
:101B00002068884227D116480025016841F002016B
:101B10000160016801F002010591016841F00101D5
:101B200001600068022400F0010005904FF460405D
:101B30008DE831000126CDE9034669460948FFF7E3
:101B400039F94FF4E0608DE83100CDE9034669468C
:101B50000548FFF72FF906B070BD000000000140F6
:101B6000303802400004024000000240704770B567
:101B7000044690F83C0000260D4601280FD00120B5
:101B800084F83C006AB1042A1DD0082A2FD00C2A00
:101B90003FD00126002084F83C00304670BD022072
:101BA00070BD206800F09CFC2068816941F008014C
:101BB00081612068816921F0040181612068816967
:101BC0002A69114311E0206800F0BAFC206881699D
:101BD00041F4006181612068816921F48061816143
:101BE000206881692A6941EA02218161D2E720687F
:101BF00000F0DCFC2068C16941F00801C161206887
:101C0000C16921F00401C1612068C1692A691143D9
:101C100011E0206800F0FEFC2068C16941F4006119
:101C2000C1612068C16921F48061C1612068C16916
:101C30002A6941EA0221C161ACE710B5040003D072
:101C400094F83D0010B107E0012010BD002084F899
:101C50003C00204600F01EF8022084F83D00211DC3
:101C6000206800F0C3FB012084F8460084F83E00A1
:101C700084F83F0084F8400084F8410084F8420072
:101C800084F8430084F8440084F8450084F83D005B
:101C9000002010BD70477047704770B5044690F83B
:101CA0003C00012812D0012584F83C50022084F821
:101CB0003D00204600F0D6FC01004FF0000007D0A8
:101CC00084F83D5084F83C00012070BD022070BDB6
:101CD0002168CA6822F04002CA602168CA6822F4FA
:101CE0008042CA6084F83D5084F83C00002070BDFA
:101CF0007047FEE770B58CB00024089409940A94EC
:101D0000202168460B94FEF7A7FA2A4828490125A6
:101D100001604FF480310561C0E90114047680F858
:101D200020402549C0E90A14C902C561C16080F894
:101D300030404561FEF7CFFF08B1FEF7ABFD0A2644
:101D40000896CDE9095408A91A48FEF785FE08B19E
:101D5000FEF7A0FDCDE900654FF480100294CDE9B7
:101D6000064003268DF8154004968DF814506946F8
:101D700010480394FEF790FD08B1FEF78BFD0B2091
:101D800000900220019069460A48FEF785FD08B1DF
:101D9000FEF780FD0C20CDE9000669460548FEF7F8
:101DA0007BFD002801D0FEF775FD0CB070BD000072
:101DB00000200140100000200100000F70B58CB021
:101DC0000024089409940A94202168460B94FEF795
:101DD00043FA2A482849012501604FF48031056102
:101DE000C0E90114047680F820402549C0E90A14AE
:101DF000C902C561C16080F830404561FEF76BFFE4
:101E000008B1FEF747FD0A260896CDE9095408A94E
:101E10001A48FEF721FE08B1FEF73CFDCDE900654A
:101E20004FF480100294CDE9064003268DF815404A
:101E300004968DF81450694610480394FEF72CFD63
:101E400008B1FEF727FD0B200090022001906946A3
:101E50000A48FEF721FD08B1FEF71CFD0C20CDE974
:101E6000000669460548FEF717FD002801D0FEF779
:101E700011FD0CB070BD0000002101405800002091
:101E80000100000F30B587B014216846FEF7E4F971
:101E90001A480024016841F080010160016801F0E6
:101EA00080010591016841F004010160016801F0C1
:101EB00004010591016841F002010160016801F02F
:101EC00002010591016841F00101016000680C4DBB
:101ED00000F0010005900022A0212846FFF762F8DB
:101EE000A02000900120CDE9010402200390694662
:101EF0002846FEF75FFF07B030BD000030380240D3
:101F00000004024030B59BB000241494159416943C
:101F100014210FA81794FEF79FF918941C21684606
:101F20001994FEF799F9202107A8FEF795F93F4883
:101F30003D494FF48075C0E900142021816041F2D1
:101F40008241C0E903150121416180218161FFF7D0
:101F50007BFC08B1FEF79EFC4FF48050149014A94E
:101F60003248FFF7BDFC08B1FEF794FC2F48FFF79D
:101F700064FE08B1FEF78EFC06200F901020109032
:101F80000FA92A48FFF789FE08B1FEF783FC1894D1
:101F900018A926481994FFF70FFC08B1FEF77AFC40
:101FA0006020CDE900040294039404940594002277
:101FB00069461E480694FFF7DAFD08B1FEF76AFC91
:101FC000042269461948FFF7D2FD08B1FEF762FC0A
:101FD000082269461548FFF7CAFD08B1FEF75AFC0A
:101FE0007020009041F21E4001900C2269460F487B
:101FF000FFF7BDFD08B1FEF74DFC4FF40060079000
:102000004010CDE908051420CDE90A040C9407A975
:1020100006480E94FFF702FB08B1FEF73BFC0348AD
:10202000FFF766FD1BB030BD00000140A00000209E
:1020300010B586B0002413480094019402940394D0
:1020400004940F490594C0E900144FF6FF71C0E9EC
:10205000024180210461C0E905416946FFF708FBA0
:1020600008B1FEF717FC5020CDE9040404A9054887
:10207000FFF7A2FB002801D0FEF70CFC06B010BD54
:1020800000040140E8000020FEE7FEE77047000082
:102090002DE9F04107460B4815460E46007808B971
:1020A00000F08CFBEFF31184202080F311882A4686
:1020B0003146384600F008F8E1B281F31188BDE8F6
:1020C000F08100003001002070B50E46144900EB8D
:1020D000400001EBC0051446E86A183520B101281C
:1020E0000FD0022805D113E0284600F095FBA0424E
:1020F00001D2002411E022463146284600F0B2FC0D
:102100000BE0284600F088FBA042F4D20446F2E738
:102110003146284600F079FC0446204670BD000098
:10212000300100200FB408B504A900916A46039954
:1021300000F004F801B05DF814FB00002DE9F04157
:102140009AB0064607A8029040200025CDE9030575
:10215000CDE9055690460C4614F8011B002978D0AD
:10216000252908D002A800F031FC05980028F3DAF0
:102170001AB0BDE8F08100200122217823291ED069
:102180002B2919D02D2902D0302908D102E040F0A6
:10219000010001E040F00200641C002AEDD10022A1
:1021A0002178A1F130030A2B0CD202EB820201EB61
:1021B0004202303A641CF3E740F00400ECE740F0E0
:1021C0000800E9E70023CFB22E2F0BD114F8011F2E
:1021D000A1F130070A2F05D203EB830301EB430380
:1021E000303BF3E76C290CD068290AD0662965D00A
:1021F0000FDC582938D007DC252919D046297CD195
:102200005CE014F8011FEDE763290BD0642974D159
:1022100012E0702946D0732933D075291AD0782955
:102220006BD121E0D8F80000011DC8F8001001783A
:1022300002A800F0CBFB60E0D8F800100F1DC8F832
:1022400000700968CDE900200A2202A800F0F0FA27
:1022500053E054E0D8F800100F1DC8F8007009686A
:10226000CDE900200A2208E0D8F800100F1DC8F8B8
:1022700000700968CDE90020102202A800F03CFBA4
:102280003BE0D8F80000011DC8F80010D0F800703D
:1022900017F8011B89B302A800F098FB05980028E5
:1022A000F6DA2AE0D8F80000011DC8F8001001682D
:1022B0000820CDE9000503461022DEE717951895A2
:1022C0001995D8F8000017AFC01D20F0070000F1E5
:1022D0000801C8F8001090ED000B11A153EC102B71
:1022E000384600F0E1FB00BF17F8011B29B102A836
:1022F00000F06CFB05980028F6DA641C35E70598B9
:1023000000287FF735AF049820B1024607A9304670
:10231000FFF7BEFEDDE904100844059028E7000041
:1023200025342E33660000007047FEF747BE0000DC
:1023300030B593B030216846FDF78EFF14210CA80C
:10234000FDF78AFF1D480025016841F080510160BA
:10235000006800F0805011901948016841F48041F4
:1023600001600068022400F4804011900120009078
:10237000000401908001CDE9064004200890A820C7
:10238000CDE9090407200B906846FEF77BFF08B1F2
:1023900072B6FEE70CA90F2081E831004FF4A0507F
:1023A0000F904FF48050109005210CA8FEF7A0FE6E
:1023B000002801D072B6FEE713B030BD40380240AD
:1023C000007000400248016841F4700101607047EC
:1023D00088ED00E00148FFF7F2BA0000A0000020FD
:1023E0000148FFF7ECBA0000E8000020F0B50268F1
:1023F000274B284D284E294F294C4FF0804C9842AE
:1024000009D0604507D0A84205D0B04203D0B842F9
:1024100001D0A04204D122F0700E4A6842EA0E02B6
:1024200098421BD0604519D0A84217D0B04215D0B1
:10243000B84213D0A04211D01A4DA8420ED01A4D66
:10244000A8420BD0194DA84208D0194DA84205D07A
:10245000184DA84202D0184DA84203D122F440756D
:10246000CA682A434D6922F080022A438D68C562FA
:102470000D688562984201D0A04201D109690163CB
:10248000016841F004010160012141610260F0BD79
:10249000000001400004004000080040000C004023
:1024A0000004014000400140004401400048014058
:1024B00000180040001C00400020004010B5846857
:1024C00042EA032224F47F440A432243826010BD7F
:1024D000826822F070020A4342F00701816070476F
:1024E000F0B5036A026A22F001020262426884695E
:1024F000124E24F073050C682C4323F002058B6800
:102500002B430D4DA84201D0B04205D123F008075E
:10251000CB683B4323F00403A84201D0B04205D16D
:102520004D6922F4407215438A692A4342608461EE
:10253000496841630362F0BD0000014000040140AE
:10254000F0B5026A036A23F01003036243688469EA
:102550000D6824F4E64444EA05248D6822F0200244
:1025600042EA05120F4D104EA84201D0B04206D1EA
:10257000CF6822F0800242EA071222F04002A8420D
:1025800001D0B04207D14D6923F4406343EA85038B
:102590008D6943EA8503436084614968816302620F
:1025A000F0BD00000000014000040140F0B5026AE7
:1025B000036A23F4807303624368C46922F40072DF
:1025C00024F073050C68124E2C438D6842EA0522F4
:1025D0000E4DA84201D0B04206D1CF6822F400626D
:1025E00042EA072222F48062A84201D0B04207D119
:1025F0004D6923F4405343EA05138D6943EA0513FB
:102600004360C4614968C1630262F0BD00000140DB
:102610000004014030B5046A026A22F4805202626A
:102620004268C3690D6823F4E64343EA05238D68D5
:1026300024F4005444EA0534084DA84202D0084D61
:10264000A84204D14D6922F4804242EA85124260D8
:10265000C36149680164046230BD000000000140AC
:102660000004014070B5036800249A6822F07005E8
:102670004A682A4322F007050A682A439A604A6892
:1026800012F00F0F31D11211082A2ED2DFE802F01A
:102690002E2E2E2E0B2127040B69D1E90221006872
:1026A000FFF70CFF22E00A68052A10D00268136ABF
:1026B000156A25F00105156202689569096925F01A
:1026C000F00545EA01119161006803620EE0012006
:1026D00070BD0A698968006800F00AF806E00A69B6
:1026E0008968006800F056F800E00124204670BDBB
:1026F00010B5036A046A24F001040462846924F0BA
:10270000F00444EA021423F00A020A4384610262DC
:1027100010BD000070B5056A046A24F0010404626B
:102720008469154EB04214D0B0F1804F11D0134ED1
:10273000B0420ED0124EB0420BD0124EB04208D072
:10274000114EB04205D0114EB04202D0104EB042F0
:1027500003D124F00304144301E044F001041A07F8
:1027600024F0F00444EA126225F00A0301F00A01A1
:1027700019438261016270BD000001400004004005
:1027800000080040000C00400004014000400140EF
:102790000018004010B5036A046A24F010040462B3
:1027A000846923F0A00324F4704444EA023243EA2B
:1027B00001118261016210BDFEE700001148032192
:1027C0000161416110A1816100F1A801C1614FF473
:1027D00080610162002181624162C1620AA20266D7
:1027E00000F595624266102282660167C166416704
:1027F000084A00BFC1F10F03D35C4354491C1029A0
:10280000F8D37047300100205465726D696E616CB9
:1028100000000000083400080269C1688A4203D839
:102820008068401A104400E0501A401E70470000B3
:102830002DE9FC5F0E008146DDE90C47C6F1000082
:1028400098469346824600D40846012503E000BF1F
:1028500090FBFBF06D1C5845FADAA84500D94546B7
:1028600024B1002E01DB780700D5641EB80702D51D
:10287000B8F1000F0FD0F8070DD164B1A5420AD20C
:1028800020214846641E00F0A1F8D9F80C00002869
:10289000F3DABDE8FC9FD9F80C000028F9DB002E24
:1028A00002DA56462D2102E0780707D52B2148464B
:1028B00000F08CF8D9F80C000028EADB07F00300E0
:1028C00002280FD1B8F1000F0CD15CB1A54209D29A
:1028D00030214846641E00F079F8D9F80C00002831
:1028E000F3DAD6E7CDE9004743465A463146484633
:1028F00000F002F8CDE700002DE9F84F8246DDE94F
:102900000A4B0126984691460D460846374602E096
:10291000B0FBF9F07F1C4845FAD2B84500D94746CC
:102920005FEACB7017D1B4B15FEA8B7002D5B8F112
:10293000000F02D0202000900BE03020FBE7504633
:10294000641E009900F042F8DAF80C00002838DB29
:102950000CB1A742F3D3DAF80C00002831DB00BF3A
:10296000B8F1010F02D9A8F1010803E0B5FBF6F0B8
:10297000484502D306FB09F6F2E7DFF84C8000BFBA
:10298000B5FBF6F000FB165518F80010504600F0A5
:102990001DF8DAF80C00002803DBB6FBF9F6002E70
:1029A000EED15FEACB700CD0002C0AD0A74208D23F
:1029B00020215046641E00F009F8DAF80C000028C7
:1029C000F2DABDE8F88F00001934000810B50446AB
:1029D000D4E90130421C934205D323681954A26004
:1029E000E068401CE060D4E90102824209D121681C
:1029F0002069FFF74DFBA168884203D04FF0FF30FC
:102A0000E06010BD0020A06010BD2DE9F047C46853
:102A10001746894606464FF000083069A04201D9A2
:102A2000051B02E0B168201A0D1AB0686D1E001B6C
:102A3000A84200D80546BD4200D33D4670682A46EC
:102A400020444946FDF7EFFBB0687F1B2C44A844A7
:102A5000A944A04200D10024F460002FDDD14046FB
:102A6000BDE8F0872DE9F04104468846D4E9020725
:102A7000C51BE168606816460844B54206D9414660
:102A8000FDF7D1FBB819E060BDE8F0812A46414668
:102A9000FDF7C9FB761B08EB050132466068FDF7C0
:102AA000C2FBE660F0E700000FB4084B10B504A9C4
:102AB00002AA039800F0EEF8044602A9002000F0F4
:102AC0006CFC204610BC5DF814FB00009B33000832
:102AD0000907090E002804DB00F1E02080F800144B
:102AE000704700F00F0000F1E02080F8141D7047DF
:102AF00002E008C8121F08C1002AFAD170477047C7
:102B0000002001E001C1121F002AFBD17047000024
:102B10002DE9FF5F82B00021DDE90430020DDDF810
:102B200040B0034318D044F61050A2F2FF324243A3
:102B30001514119801281FD0A5EB0B00401C5FEA6B
:102B4000000A4FF000064E4FDFF83891B04650466D
:102B500015D5CAF1000413E0119801244AA30128F5
:102B600001D16FEA0B010298119AC0E90031C0E966
:102B7000024206B0BDE8F09FCBF10000DFE704465B
:102B80000021404A491842EB0450CDE9001012E000
:102B9000E00707D032463B4640464946FDF743FC36
:102BA0008046894632463B4610461946FDF73BFCB7
:102BB00006460F466410002CEAD1DDE90401DDE988
:102BC0000023BAF1000F06DAFDF72DFC42464B4612
:102BD000FDF729FC05E0FDF798FC42464B46FDF762
:102BE00094FC04460E460022284BFDF715FD03D841
:102BF0004FF0FF30014607E00022254B20463146CA
:102C0000FDF76AFBFDF7F0FC102409E0002C0ADB5D
:102C10000A220023FDF7D6FA039B30321A55641EB0
:102C200050EA0102F2D1641C039AC4F11103144466
:102C3000119A012A03D0012208430DD10AE008436A
:102C400004D000204FF0110B119072E7A3EB0B059D
:102C50006D1E0DE05B4504DD4FF0000205F101053E
:102C600004E003DA4FF00002A5F10105002AECD0E0
:102C700002981199C0E90231C0E9004579E70000E6
:102C8000000014400000F03F300000000000F0435E
:102C90000000E03F2DE9FF4F95B09A468846064672
:102CA0000025EEE1252877D100242746F94A0121A5
:102CB000039400E0044316F8013F203B01FA03F0BF
:102CC0001042F7D130782A2811D06FF02F033078D6
:102CD000A0F13002092A16D8039A44F0020402EB4C
:102CE000820203EB42021044761C0390EFE758F88F
:102CF000042B0392002A03DA504244F40054039058
:102D000044F00204761C30782E2816D116F8010FF4
:102D100044F004042A280DD06FF02F023078A0F17F
:102D20003003092B09D807EB870302EB4303C718CD
:102D3000761CF3E758F8047B761C30786C280FD0AB
:102D400006DC4C2817D068280DD06A2814D104E07E
:102D5000742810D07A280FD10DE044F400140AE052
:102D600044F4801401E044F440147278824202D1A9
:102D700004F58014761C761C307866280BD013DCA2
:102D8000582877D009DC002875D04528F6D0462889
:102D9000F4D047281AD193E118E0632835D064288D
:102DA00079D0652812D18BE1702873D008DC6728B0
:102DB000F1D069286FD06E280DD06F2806D1ACE015
:102DC00073282CD0752874D0782853D05246179980
:102DD00090476D1C54E1C4F30250022809D0032827
:102DE0000DD0D8F8001004280DD00D6008F10408AB
:102DF00046E1D8F80010EA17C1E90052F6E7D8F822
:102E000000100D80F2E70D70F0E718F8041B8DF844
:102E1000001000208DF80100EB46012003E058F877
:102E200004BB4FF0FF3061074FF0000102D40DE00A
:102E300009F101018946B9420FDA8145F8DB1BF837
:102E400009100029F4D108E009F101018946814205
:102E5000FADB1BF809100029F6D103985346A0EBC2
:102E6000090721463846179A00F080FA284400EBFB
:102E7000090507E044E008E10DE01BF8010B5246AC
:102E800017999047B9F10109F7D2534621463846C0
:102E9000179AF2E039E00A21C4F302524FF0000B16
:102EA0000091022A06D058F8040BC117032A09D052
:102EB0000AE023E008F1070020F00702F2E802012F
:102EC000904605E000B2C117042A01D140B2C117F3
:102ED000002906DA0A460021404261EB02012D2258
:102EE00002E0220504D52B228DF80420012203E004
:102EF000E20701D02022F7E7914657E00A2100E0DF
:102F000010214FF0000B00910BE010214FF0000B4F
:102F100044F004040827009103E008204FF0000B60
:102F20000090C4F30252022A05D058F8040B002185
:102F3000032A08D008E008F1070020F00702F2E8B1
:102F40000201904603E080B2042A00D1C0B24FF0E3
:102F5000000922072AD53278702A07D0DDF800C090
:102F60008CF0100C5CEA0B0C05D00EE040228DF8C2
:102F70000420012208E050EA010306D030238DF836
:102F800004308DF8052002229146009B83F008034F
:102F900053EA0B030AD150EA010201D1620705D5B9
:102FA00030228DF804204FF001097F1E3278582A14
:102FB00004D039A20C920CAA02920BE03BA2F9E7D2
:102FC0005B46009AFDF7FEF80C9B9B5C029A521E32
:102FD0000292137050EA0102F2D1029804A9081A71
:102FE00000F1200B600702D524F4803400E00127B3
:102FF0005F4502DDA7EB0B0000E0002000EB0B01BA
:10300000009003984944401A0390E00306D45346C5
:103010002146179A039800F0A9F90544002706E015
:1030200001A85246C05D179990476D1C7F1C4F4503
:10303000F6DBE0030CD553462146179A039800F0BF
:1030400095F9054404E030205246179990476D1CCD
:103050000099481E00900029F5DC08E002980299CA
:1030600052460078491C0291179990476D1CBBF19C
:103070000001ABF1010BF1DC5BE100F065F9054407
:10308000761C307800287FF40DAE19B02846BDE8D4
:10309000F08F0000092801003031323334353637E3
:1030A0003839616263646566000000003031323394
:1030B0003435363738394142434445460000000034
:1030C000600700D4062708F1070020F00700F0E8A9
:1030D0000223804603F0004C5FEA0C0001D097A069
:1030E00009E0200501D596A005E0E00701D095A0F4
:1030F00001E0AFF24C001390307823F000436528D4
:103100000CD006DC452809D046281DD047287FD1A1
:103110003BE0662818D067287AD136E00021112FCD
:1031200001DB112000E0781CCDE9000104A90CA806
:10313000FFF7EEFCDDE90D010C9A4FF0000B07F1F3
:103140000109109200914EE04FF000400097CDE948
:10315000011004A90CA8FFF7DBFCDDE90D020C9BB4
:103160000F994FF0000B91461093009211B9791C02
:1031700000EB0109B7EB090003D4C0F1FF3B07F1F5
:103180000109A9EB0700019042E0012F00DA0127B5
:103190000021112F01DD112000E03846CDE90001AA
:1031A00004A90CA8FFF7B4FCDDE90D010C9A00910D
:1031B0004FF0000BB946109221070FD4009A4A45F0
:1031C00003DA914601E0A9F10109B9F1010F05DD2A
:1031D000109AA9F10101515C3029F4D0B84202DA09
:1031E00010F1040F03DA0121CDE9011010E00028ED
:1031F00003DC8344A9EB000102E0411C494500DDEA
:103200008946A0EB0B00401C01904FF0004002905B
:10321000200705D40198484502DB4FF0FF300190AC
:1032200000208DF84B0002980DF14B07B0F1004FD4
:1032300025D002200C902B200D90029800280CDA4B
:10324000404202902D200D9007E00A210298FDF7E0
:103250000EF83031029007F8011D0C99481E0C90B1
:103260000029F2DC02980028EFD1791E0D98087031
:10327000307800F0200040F0450007F8020D11A85A
:10328000C01BC01D02901398007800B1012000EB14
:103290000901019801EBE071029801440398401A7A
:1032A000401E0390E00306D453462146179A039824
:1032B00000F05CF805441398007818B1524617994D
:1032C00090476D1CE00323D553462146179A039877
:1032D00000F04CF805441BE0BBF1000F07DB009841
:1032E000584504DD1098179910F80B0001E0179964
:1032F00030205246904701980BF1010B401E05F11A
:103300000105019004D12E205246179990476D1C5B
:10331000B9F10001A9F10109DEDC05E017F8010BA4
:103320005246179990476D1C0299481E0290002939
:10333000F4DC53462146179A03989EE62D000000C0
:103340002B000000200000002DE9F041044600257C
:103350001E461746880404D405E039462020B047AD
:103360006D1C641EF9D52846BDE8F0812DE9F041B9
:10337000044600251E469046C80301D5302700E0CC
:103380002027880404D505E041463846B0476D1C27
:10339000641EF9D52846BDE8F0810A68531C0B600D
:1033A00010707047FDF712FEFEF7C2FFFEF76AFDD0
:1033B000FEF7A0FCFEF702FDFEF7A4FDFEF738FEC7
:1033C000532205A10020FEF7ADFE0122202109486D
:1033D000FDF7E8FDFEE700007072696E7466205428
:1033E0006573743A202525632C5327203A202563E2
:1033F0002E0D0A0000040240000000000000000042
:1034000001020304060708090000000000005454EC
:103410005220524547474553003031323334353618
:103420003738394142434445460000004C340008D7
:103430000000002010000000F02A00085C340008A2
:1034400010000020D8090000002B00080100000037
:0C34500010000000000000000024F40048
:040000050800018965
:00000001FF
