:020000040000FA
:10000000E0140020D9000000E70000007521000086
:1000100000000000000000000000000000000000E0
:10002000000000000000000000000000EB000000E5
:100030000000000000000000ED0000008D3D000009
:10004000993D0000C13D0000C33D0000C53D0000DA
:10005000F1000000F1000000F1000000C7350000D1
:10006000F10000005D200000D73F0000D93F0000F4
:10007000A9160000BB07000079030000510400002E
:10008000F1000000F1000000F1000000F1000000AC
:10009000C5350000294300005D370000E531000050
:1000A0009B070000000000000000000000000000AE
:1000B0000000000000000000000000000000000040
:1000C0000448854600F016F900480047B14C00008E
:1000D000C046C046E0140020064880F30888064861
:1000E000804706480047FEE7FEE7FEE7FEE7FEE73B
:1000F000FEE70000E01400208F3D0000C10000007A
:1001000030B50B46014600202022012409E00D46AF
:10011000D5409D4205D31D469540491B2546954037
:1001200040191546521E002DF1DC30BD70B500247B
:100130002546002801DA01244042002901DA012580
:100140004942FFF7DDFFAC4200D04042002C00D016
:10015000494270BDF8B500242546002904DA0E4650
:10016000012400214042B141002B04DA1E46002345
:1001700052420125B34100F08DF88C4617461E46C9
:10018000AC4203D0002540428D41AC46002C02D049
:10019000002657429E4161463A46334601B0F0BDC3
:1001A000F0B51FB486B00020009001900290069830
:1001B000069980B204900798090C020400141143B8
:1001C00007900027089D099806913E463C460390FB
:1001D0000398A9B20204000C039004982D0C154357
:1001E00048430021224600F018F8C7197141103425
:1001F0000E46402CECDB3846029A00F00EF8009ACE
:10020000019B801800905941029801911030029092
:100210004028CCDB00980BB0F0BD10B5202A04DBE1
:100220000146203A9140002010BD914020239C1AA5
:100230000346E3401943904010BD03460B439B0720
:1002400003D009E008C9121F08C0042AFAD203E04B
:100250000B780370401C491C521EF9D27047D2B271
:1002600001E00270401C491EFBD270470022F6E7F5
:1002700010B513460A4604461946FFF7F0FF20461C
:1002800010BD03460A780270401C491C002AF9D1AF
:1002900018467047F0B51FB40646002082B00546E8
:1002A0004024019100901BE0019922460F46304600
:1002B00000F032F8049A059B801A994110D3104639
:1002C00019462246FFF7A9FF361A8F4101972246A9
:1002D00001200021009FFFF7A0FF38184D4100903A
:1002E0002046641E0028DFDC019B00982946324628
:1002F00007B0F0BD064C0125064E05E0E36807CCCB
:100300002B430C3C98471034B442F7D3FFF7DCFE84
:10031000445600006456000010B5202A04DB08464D
:10032000203AD040002110BD0B46D340D0402024BD
:10033000A21A91400843194610BD000010B50C499F
:100340000968491E4A1E9141CA02012149040B68ED
:10035000084C23409A180A60592212064A604860E5
:10036000C868952212064A600A6822400A6010BDD9
:10037000A0000040FFF7FFFF70B51B484169032252
:1003800011434161194CE088401CE080184D002069
:10039000286100F091F9286920802088608004207D
:1003A000205E0221615E884202DA0220205E01E0C6
:1003B0000420205EA080002004F0B8F90B4C083423
:1003C0002080002004F0A6F96080002004F062FA8A
:1003D000A080002004F068FAE08008222146012075
:1003E00003F0A8F870BD0000800401400400002064
:1003F0000003014010B588B0684600F037F90020CE
:100400006A465080D080108150819081D081012136
:10041000118290801180062151829082D082508377
:1004200090830A4CD0831146204600F0B7F87F2114
:10043000204600F0B0F800F047F804484030416B27
:10044000C2141143416308B010BD00000004014014
:10045000044841690322114341610349C888401C93
:10046000C8807047800501400400002010B588B0A6
:10047000684600F0FBF800206A465080D08010816A
:1004800050819081D08101211182908011800421BE
:1004900051829082D082508390830A4CD08311463F
:1004A000204600F07BF87F21204600F074F800F031
:1004B0000BF804484030416BC2141143416308B04B
:1004C00010BD00000005014010B5244C002301229E
:1004D0001946204600F04AF8002302220121204656
:1004E00000F044F8002301220221204600F03EF8EB
:1004F000002302220321204600F038F800230C22BA
:100500000421204600F032F800230C220521204669
:1005100000F02CF8002307220621204600F026F8E0
:100520000F4C00230D221946204600F01FF800232F
:100530000D220121204600F019F800230C2202218F
:10054000204600F013F800230B220321204600F080
:100550000DF805490348086310BD00000004014080
:1005600000050140ACF4FFFF000C014010B5012B69
:1005700003D1446E8B401C4344660B079B0F8907D5
:10058000090F9B001818036D0F248C40A3438A4069
:100590001A43026510BD80304161704770B50C464A
:1005A00005460121084603F0DBF8218860880143F5
:1005B000284680300161E18AA28A090212011143B2
:1005C000628A11432966218AA967A188E288090302
:1005D00092021143228912021143628912011143CE
:1005E000A289D2001143E28911436967618B41649A
:1005F000A18B8164E18BC164A1204001FFF79EFEC5
:10060000124C20601248FFF799FE60601048001DF0
:10061000FFF794FEA0600E480830FFF78FFEE06001
:100620000B480C30FFF78AFE0A4C20600848103057
:10063000FFF784FE606006481430FFF77FFEA0607D
:1006400003481830FFF77AFEE06070BD8004014077
:100650002414000080050140012902D1024901480B
:10066000C8637047A55A0000400401400021018082
:1006700041808180C180018141818181C18101826C
:10068000012242828282C282018370477047000049
:1006900002490A684280496881807047000401402D
:1006A00001498969C1827047000401400149096913
:1006B000C18170470004014010B50648064AC16870
:1006C00013684B8053688B801269CA8101F038F837
:1006D00010BD0000FC010020000401400288807869
:1006E0004A430241104670470289807A4A430241D8
:1006F00010467047828880794A430241104670470D
:1007000014211D4A41438918C4221C4B424310B492
:10071000D218BC239C580223E35E194C4000245E8F
:100720006343184CDB13205E1BB258434023001375
:10073000D35E00B2C31A0B614C890888634302047C
:10074000CC688888E3180004CB60934201DD13462F
:1007500002E0834200DA0346CB600C6909894C430E
:1007600021015918914201DD104602E0814200DB6F
:10077000084610BC001470479C100020280F002071
:100780002A0000202800002010B504F0D9F910BD7F
:100790000004C860086148617047704710B50028C0
:1007A00005D0012805D0022806D1800202E04020B1
:1007B00000E0802002F0D4FF10BD7047F0B54E4C31
:1007C0004C49A162E305596942781143596199691D
:1007D000024640321588AD0329439961818CC58C4E
:1007E00009032D01294305892D0229434589AD00BF
:1007F00029430578ED01294355882943DD692943BB
:10080000D9615D6AD17CC77EC9020D4301462031A2
:10081000CE7DF601BF013E4335435D620023A362F6
:10082000537D9C024B7E5B021C43437F1B021C4397
:10083000137D9B001C430B7E5B001C43037F1C430A
:100840002E4B1C600479456C24062D052C43856CC9
:100850002D042C43856A2D032C43C56A2D022C439D
:10086000C5682D012C4305692C43957CED042C4370
:100870008D7DED022C43857EED002C439C60148A17
:10088000957D9289A4026D022C4312021443428E7C
:10089000D2011443828E920114438A7E5201144382
:1008A000028E12011443C28AD2001443028B9200BA
:1008B0001443827F52001443828A1443DC60CA7E50
:1008C0000C7FD201A40122434C7FC07F64012243EC
:1008D0008C7FC00024012243024308788000024339
:1008E000487840000243887802431A610320586028
:1008F000F0BD0000837A000080000040000201404B
:1009000010B55C21FFF7B2FC10BD00B597B068468A
:10091000FFF7F6FF0121042002F032FF00206B46B2
:100920000190587001221A70042119815A8198820D
:100930001883987718770221039104919876D876D6
:100940009884D98458771886988608AB9876187654
:100950000A910B919A75DA756846FFF72FFF01210E
:100960000846FFF71BFF17B000BD0000C42250432C
:100970000A4A0B0480188030C06B018042689B1AC1
:100980005B109A18426041800122054952060A62B2
:100990000222825E4A62896A81607047280F0020C5
:1009A00000300140F1B588B00898C4214843FE49A1
:1009B000461830680190304680307568016B0691AA
:1009C000416B0591806B0490AA6A3446D317039358
:1009D00002920C346421E86903F04BFD039B029AF8
:1009E000FFF7B8FB6060696A286A03F042FD039173
:1009F0000290EE49E86903F03CFD039B029AFFF781
:100A0000A9FB20606A8B642042436868D317C11732
:100A10008708890739438007FFF79CFB0905000B0E
:100A20000843A08464216868FFF780FB4004698B59
:100A3000FFF77CFBE084EA680292D3170393192145
:100A40004904A86803F015FD039B029AFFF782FB97
:100A50006A8B0023FFF77EFB0121C903081AA060FF
:100A600064216868FFF762FBD14903F002FD6A8BDD
:100A70000023FFF76FFBEA680292D31703932969FB
:100A800003F0F7FC039B029AFFF764FB009003F06E
:100A900077FD024600990F3A1141E1601C21081AC6
:100AA000607520680290C01703906068C14AC11742
:100AB0000723FFF775FB039B029AFFF74BFB03919C
:100AC0000290E8686A8BC1170023FFF769FB0246B2
:100AD0000B4603990298FFF73DFB009003F050FD91
:100AE000024600990F3A114121611E21081AA07592
:100AF0000198C421028808984843AB4940188C30BB
:100B00000090002A53D020680023C117FFF748FB4C
:100B1000EA68D317FFF744FB420FC9001143FF23D4
:100B2000626887335A43C000D317FFF713FB00995D
:100B30000291096A80B2088001996F8B498803F09D
:100B4000B1FC0A220023FFF72BFB3A460023FFF7F4
:100B500001FB02990023096A48802068019AC117A5
:100B60001288FFF71DFB2A69D317FFF719FB420F05
:100B7000C9001143FF23626887335A43C000D3176B
:100B8000FFF7E8FA029980B2096A88806A8B0199B6
:100B90000392498803F086FC0A220023FFF700FB3A
:100BA0000023039AFFF7D6FA0299096A49E0E86838
:100BB0006A8BC1170023FFF7F3FA2268D317FFF7F8
:100BC000EFFA092362689B015A43D317FFF7C2FA71
:100BD000009A0292116A0880A868216803F049FC13
:100BE000C20C49031143744B626840035A43D31744
:100BF000FFF7B0FA029A0023116A4880E8686A8B0E
:100C0000C117FFF7CDFA2268D317FFF7C9FA0923F6
:100C100062689B015A43D317FFF79CFA029A116A44
:100C20008880A868216803F024FCC20C49031143A2
:100C3000614B626840035A43D317FFF78BFA029A5D
:100C4000116AC880009F386A018806980181386A55
:100C5000418806984181386A018805980181386A7F
:100C60004188059841813068C18B386A01813068BC
:100C7000018C386A41810A216868FFF757FA0246F9
:100C800068694E494243D31700931646606803F0E3
:100C9000F0FB3246009BFFF75DFA0146386A642399
:100CA00081610498049948300090002008604860F1
:100CB0008860C86048618861C8610862009A0E4611
:100CC000106050609060D060106150619061D061A0
:100CD00010626C3630607060B060F06030617061DE
:100CE000B061F06130627D228B80D2000A800B817E
:100CF0000B6127680A204743384603F041FC014650
:100D00000F380741009807801E20411A0098418043
:100D10006768384603F034FC01460F3807410098F5
:100D200087801E20411A0098C1806F68384603F002
:100D300027FC01460F380741009807811E20411A01
:100D4000009841816168206803F093FB64220023CE
:100D5000FFF726FA1A4A0023FFF7FCF9074603F0CB
:100D60000FFC01463A460F380241009802611E20EE
:100D7000411A0098818221680A2041434007FFF709
:100D8000D5F9074603F0FCFB01460F3807411E204A
:100D9000411A37807180012080076168FFF7C6F92A
:100DA000074603F0EDFB0DE0280F002000E1F505FC
:100DB00010C90000000020A1850B0000F0BE1B033D
:100DC0008E16000001460F3807411E20411AB780D9
:100DD000F180012080076968FFF7A8F9054603F054
:100DE000CFFB01460F38054135811E20411A174DB2
:100DF0007181284603F0C4FB01460F38C5401E2010
:100E00007583401AB083012080076168FFF78EF96F
:100E1000054603F0B5FB01460F390D411E21F58350
:100E2000081A3084019801693046FFF75DFC60675D
:100E3000019841693046FFF757FCA0670198816926
:100E40003046FFF751FCE06709B0F0BD2B1A0900EE
:100E5000F0B5C4214E4A41438E184E4A41018C18C8
:100E60004D490001401800687568C289818983B0C6
:100E7000D0030C36FFF75AF94849884200DB084690
:100E8000A0836A684649D31700931746706803F039
:100E9000F0FA3A46009BFFF75DF932687D21D317DF
:100EA0000746C9000193009203F0E3FA019B009A00
:100EB000FFF750F900906869FB17C117020D09038D
:100EC000114300033A46FFF745F9074603F058FB84
:100ED0001B21081A00B260820C2802DA0C21081AC1
:100EE00007412782E868C117020D09031143009AE0
:100EF0000003D3170193FFF72DF9074603F040FBDA
:100F00001B21081A00B2E0820C2802DA0C21081A10
:100F10000741A7822869019BC117020D09031143EC
:100F20000003009AFFF716F9074603F029FB1B217F
:100F3000081A00B260830C2802DA0C21081A074153
:100F4000278332681749D31700931746706803F058
:100F500090FA3A46009BFFF7FDF8AB68D9171A0DD7
:100F6000090311431D030246C3172846FFF7F2F891
:100F7000054603F005FB1B21081A00B2E0810C288E
:100F800002DA0C21081A0541A58103B0F0BD00006A
:100F9000280F0020B01000203C100020FF7F000030
:100FA0002B3E000010270000F0B4C4232D4C434317
:100FB0001D192B468035EC6B0C334D885D85002563
:100FC0004D5F9D852A21595E6D434943264E49193F
:100FD0003163716B254F09B2998602254000655F28
:100FE000385E4543E81300B281420EDDC003306233
:100FF0007162B06A2A21595E80B24143C913598592
:101000002C21595E4143C813988518468030816869
:1010100040680968DD8C0068694308183168042558
:1010200029433160000C70607069316900B22A2672
:101030009E5F2C255D5F09B237462B464B434743E5
:10104000FB1A4E43DB13A1681BB259434543891277
:1010500070191180C013A16800B2414388125080FA
:10106000F0BC7047280F0020003001402A0000200B
:10107000F8B54C1C6410A646CA030CB20092A446F4
:10108000684A694B4C42002868DB451C6F10C50359
:1010900006B2002932DB88421BDB002812D0009800
:1010A000C01910625662906AC1094900CA18528874
:1010B000595A4006521A400E42434032D00908188D
:1010C00000B2F8BD002902D001208003F8BD002045
:1010D000F8BD70462818106260465062906AC109D7
:1010E0004900CA185288595A4006521A400E4243C3
:1010F0004032D00908180121890390E0A04216DB94
:10110000002812D0E003C01910625662906AC1092B
:101110004900CA185288595A4006521A400E424392
:101120004032D00908184042CAE74048F8BD601C68
:1011300040102818106220B25062906AC10949001C
:10114000CA185288595A4006521A400E4243403239
:10115000D009081801218903401AB1E7012540424E
:10116000ED0300292EDB884215DB441C0099641036
:101170000919116200B25062906AC1094900CA1887
:101180005288595A4006521A400E42434032D00902
:101190000818281A94E7C1037046081810626046C0
:1011A0005062906AC1094900CA185288595A4006CB
:1011B000521A400E42434032D009081801218903D7
:1011C00040187DE7A04215DB411CE403491061187B
:1011D000116200B25062906AC1094900CA1852886F
:1011E000595A4006521A400E42434032D00908185C
:1011F000401B65E7C103601C40100818106220B254
:101200005062906AC1094900CA185288595A40066A
:10121000521A400E42434032D00908180349081AB6
:101220004EE70000003001402454000000C0FFFFE2
:10123000704770B50546064604463035783602F0EC
:1012400079FB8034E08A012189020843E082E06B67
:101250000121C08868850020A870304603F0C6FED2
:1012600070BD000010B50D4A0B4890620020C043CD
:10127000506200245462D113C8034162816AC023C2
:101280009943816281680904FCD4642002F0ABFABE
:1012900003481060946210BD837A00008000004013
:1012A000FF1100008030018B012212039143018362
:1012B00070470000024841691022114341617047A4
:1012C000800C014010B503F065F9002806D0FFF747
:1012D0005BFA03F039FA002800D0012010BD028823
:1012E00080784A430241104670470289807A4A4317
:1012F0000241104670470269007D4A430241104690
:101300007047828880794A43024110467047202105
:10131000020C01D010211046020A01D010460839F3
:10132000020901D01046091F820801D01046891E0B
:10133000420801D0881E7047081A704730B5DC316A
:10134000002306C9C35E002B00DA5B421CB20223F5
:10135000C35E002B00DA5B420425455F1BB2002D03
:1013600000DA6D4228B20025555FA54200DA1480EC
:101370000225555F9D4200DA53800425555F854262
:1013800000DA90804A881925AD01AA420ED8521C75
:101390004A804A68A24200D24C608A689A4200D2CF
:1013A0008B60CA68824200D2C86030BD88880882DB
:1013B0000889488288898882002048608860C860DF
:1013C000488030BD08B50020009007480099491CAE
:1013D00000918142FAD3002003F05CF981689C30CF
:1013E000098C00F003F808BDFFFF0600F0B585B0DA
:1013F0000E46054672B63448344908603348002426
:10140000C038046044608460C460046144612F4A51
:10141000FF20803A10612E480860204601F0C8FE87
:101420002C4FBC63BC6304203861786BF91408430B
:101430007863294A04940498401C04909042FAD39B
:101440002648386100940194029403940494214C3A
:101450000498403C28E001212046FFF7FDF81D4894
:1014600040304169C907FCD0416903221143416101
:10147000786B0121C902084378632068009900B2A3
:10148000401800906068019900B240180190A0686F
:10149000029900B240180290E068039900B2401827
:1014A00003900498401C0490B042D4D3FEF7A2FFEE
:1014B00031460098FEF73AFEE88031460198FEF783
:1014C00035FE288105B0F0BDADDE0000C00C014046
:1014D000FECA000040040140FFFF0700213C00005D
:1014E00010B5C26801690389511A5943438909013A
:1014F00053435918836959188161838A1C0403680E
:1015000061188B4202DB43688B4202DD19461B1BCC
:10151000836109140261084610BD10B5002805D08A
:10152000012802D1400202F01BF910BD0120000386
:10153000F9E70000F8B50C46324F3149B962FE05B3
:101540007269811D01238B409A437261726923780D
:101550008B401A4372612B4D403D002802D0012878
:1015600024D04AE07069400606D52748FEF7E6FE1B
:10157000E8622548001F0AE070698009C00709D1A8
:1015800021480838FEF7DAFEE8621F480C38FEF7FB
:10159000D5FEA862E869E178084302216156090195
:1015A0000843E861F0696178C90224E070690006C7
:1015B00007D515481030FEF7C1FE686312480C309D
:1015C0000AE07069C009C00709D10F480830FEF76A
:1015D000B5FE6863A3204001FEF7B0FE2863022039
:1015E0002056E178000309020843E9690843E861ED
:1015F000F0696178C9030843F0610448B862F8BD36
:10160000837A0000800000405C140000FFFF0000AF
:101610000905090D044A002803D0012800D15162B0
:1016200070471162704700004000004010B504216F
:10163000FEF71CFE10BD000038B56846FFF7F6FF48
:10164000002003F01DF8FF258935455F012069461C
:10165000087000204870C8708870FFF76BFF6946FB
:101660000878012802D0002803D003E04B2424018D
:1016700000E00B4C28032146FEF758FD094988423B
:1016800001DD084602E0002800DA002001460020C3
:10169000FFF7BEFF01210020FFF73FFF38BD00002C
:1016A000F2120000FF0F0000704710B5012148043E
:1016B00002F066F810BD0000024A10625162906AA2
:1016C00000B27047003001400F4B0E4919600F49BE
:1016D0000D4A0988403A012804D0022807D003287F
:1016E00009D00BE00A48084310620C2004E00948C6
:1016F0000143116202E0082001435162002018609A
:1017000070470000ADDE0000C00C01401400002056
:10171000080C00000C080000084A0749116007493E
:10172000402340390028086B04D018430863002088
:10173000106070479843F9E7ADDE0000C00C01402F
:10174000FEB504460078009020463830256C0290A3
:101750006069019026462C36216B3046E76B88473E
:10176000B068008A3880B1681220085E7880B2685C
:101770001421515EB980401A74494843216C001409
:101780004880216C38880880207A0027002807D0FC
:101790002772E0680E21415E0098FFF7E7F801E04C
:1017A00001202072217A009803F0EEFB01988678E0
:1017B000330002F090FE08059B9B14141414819BC7
:1017C0002A21415E206E808941430801010C206F6F
:1017D00001F0E8FFE16FA0694969884786E0012EC2
:1017E00002D0009803F00AFCE06C416801605848A0
:1017F0000168042211430160E16C0968090C416031
:10180000416909B221870069022200B26087AA5E9D
:1018100002234A430021695E4143501A616CC013A0
:101820000880029900200022285E8A5E022150432F
:10183000029A695ED35E59434018616CC0134880B8
:10184000207A002820D1207802F02CFF00282ED00A
:10185000A16C0020085E616C00228A5E616D801AB6
:10186000C860A16C0220085E616C02228A5E216D54
:10187000801AC860606DFFF733FEA16D0880206D8F
:10188000FFF72EFEA16D48802078E26DA16DFFF775
:101890008BFBA06FE16D026800989047E16FA06933
:1018A00049698847616C009801F0EEFC1EE0606DAC
:1018B000C760206DC760DDE701462A20226E085E02
:1018C00091894843001300B2814201DC0C20105E74
:1018D00081B2206F01F066FFE16FA0694969884716
:1018E000204600F075FD009800F0CEFE254620351C
:1018F0002E72E16FE068496A88476069154E017B86
:10190000012904D02030007A002816D019E0207870
:10191000315C491CC9B2315402290DD360692030B1
:10192000007A002803D1E06F8169012088470120F7
:101930006872217802207054FEBDE06F816900203A
:1019400088470220687220783754FEBDCE9300008D
:10195000003001401A000020F8B5054604468035E5
:10196000287E000749D52646C0361820305E052857
:1019700001DA401C00E001203083E07B002804D025
:10198000286D022201881143018020461E30214625
:10199000074600F033F821463846FFF7CFFC182001
:1019A000305E030002F097FD062304080F161D2386
:1019B000204600F027FA1AE0287F082817D1204691
:1019C00000F060F913E0287F082810D1204600F0CD
:1019D00044F80CE0287F082809D1204600F0D0F810
:1019E00005E0287F082802D1204600F0C4F9286DC0
:1019F000008820810020E072A072F8BD30B54A68EE
:101A00000023C35E9568002B00DA5B4280314A6D8B
:101A10000024145F0A6FA3420DDC0223C35E002B77
:101A200000DA5B42A34206DC0423C35E002B00DA2B
:101A30005B42A3420EDD0020105EFF35431C138085
:101A400081352A8A904204DB086D01220188114306
:101A5000018030BD0020108030BDF0B54168FF240A
:101A60008B680246F1348032E45C0025916E012CD3
:101A700006D00D80106D2022018891430180F0BDB9
:101A8000FF260136345E002C00DA6442566D0A27C8
:101A9000F75FBC420ADA0069002800DA4042F468C5
:101AA000A04203DD0888401D088000E00D80FF3360
:101AB0000020C133085E9B8B9842E0DB0D80106DE7
:101AC000202201881143D9E710B5044602F012FC28
:101AD000204600F001F810BDF8B50446406885685E
:101AE0000746FF35783781353846E968FEF7F6FD59
:101AF0008034616D00260880A06E06803846696DCE
:101B0000FEF7ECFD616D48813846A96DFEF7ECFDEE
:101B1000616DC860E06E0680E06E4680E06EC68053
:101B20003846A96BFEF7DAFD616D08823846E96B2D
:101B3000FEF7D4FD616D48613846296CFEF7CEFD95
:101B4000616D8861616D686CC861606D4684606DAF
:101B50000684A06F06803846296EFEF7BFFD616DD2
:101B6000C8841821E06DFEF781FB0621206EFEF788
:101B70007DFB606F0A210680E06FFEF777FBF8BD02
:101B8000F0B50146406880318068FF25F4352D5C52
:101B9000CC6D0B6E8A6F40270026012D08D0168071
:101BA0005680086D0288BA430280486D0685F0BDF4
:101BB000FF30C13000258646555F808C854202DAB1
:101BC0006D1D15801AE016800020185E02258446DF
:101BD0005D5F8010A84207DCA81004255D5FA84265
:101BE00002DCAD10654506DD0D6D28883843288080
:101BF000486D012505851E805E809E80486D2623E8
:101C0000258AC35E9D4205DB608A984202DBA08A7A
:101C1000984211DA02207346105E9B8C984202DAD9
:101C2000401D5080F0BD5680086D02883A43028006
:101C3000496D02200885F0BD5680F0BD70B50446A0
:101C400046688034216D0020B5680880A16EFF359C
:101C50008880E16E01358880216F78368880216F19
:101C60000881616E8880616F88803046696FFEF7F9
:101C700041FD616DC8803046E96FFEF73BFD616D47
:101C8000088170BDF1B582B00298029E406880362E
:101C90008768306C756D8068F46E002800DA404209
:101CA00001900298007802F07BFDFF21F231C95DBE
:101CB000012908D0306D102102888A43028000205B
:101CC0006884208038E00621FF37615EC1370097C5
:101CD000BA89914202DA491DE180FEBD6A6901219B
:101CE000824201DA298404E0AA69824201DD0020EF
:101CF0002884288C012821D02088401F00B2208011
:101D0000002801DA002020800298007802F0E0FD2F
:101D100007460298007802F021FD4743E969F8136D
:101D2000414308120199814223DD00990220205E7F
:101D3000C989884213DA401D6080FEBD009A0020E8
:101D4000205ED289904201DA401DDCE7002020802D
:101D5000306D102302881A4302806984D4E7002082
:101D60006080306D10220188114301800220688458
:101D7000FEBD0020E0E7F0B501464068FF24806822
:101D80008031F334245C01250B6ECA6F6D02012C87
:101D900008D00023D380086D0288AA430280486DD2
:101DA0008384F0BDFF300624C130145F068DB44239
:101DB000F7DA641DD4804F6D002610249E5F3C5FCF
:101DC000A64207DC02269E5FA64203DC04269E5F35
:101DD000A64206DD0B6D1C882C431C804C6D032332
:101DE000A384CB6B5B7F002BDBD10623D35E408DBE
:101DF0008342D6DD086D02882A430280496D0420A3
:101E00008884F0BDF0B54168044680348B68226D4B
:101E1000616E646D14250226455FA65F0020AE4208
:101E200003DC0C88641D0C8009E00426A65FAE422A
:101E300003DD4C88641D4C8001E008804880FF333E
:101E4000002481330C5F1E880425B44203DB088024
:101E500014882C43148002240C5F5F880826BC423F
:101E600003DB4880148834431480DC79002C03D1D0
:101E700048801488B44314809B79002B03D10880D8
:101E80001088A8431080F0BD10B5FEF78BFD10BD83
:101E900070B50D4604460121C80201F071FC686866
:101EA000002805D001286068296809D0884308E027
:101EB000606829688843606020682968084304E0F6
:101EC000084360602068296888432060A86800286B
:101ED0002069296801D0084300E088432061E86850
:101EE0000028A069296801D0084300E08843A06168
:101EF00028690028E069296801D0084300E0884388
:101F0000E06170BDF0B5324F1601150214030B00ED
:101F100002F0E1FA10090D13181E22282D33373D67
:101F200042484C52571D016A394089180EE0016A37
:101F3000274AE13A1140711808E0016A254A114028
:101F4000691803E0016A0905090D61180162F0BD15
:101F5000416A394089180EE0416A1D4AE13A114050
:101F6000711808E0416A1B4A1140691803E0416A90
:101F70000905090D61184162F0BD816A394089186F
:101F80000EE0816A124AE13A1140711808E0816A54
:101F9000104A1140691803E0816A0905090D6118AA
:101FA0008162F0BDC16A394089180EE0C16A084AF1
:101FB000E13A1140711808E0C16A064A11406918F7
:101FC00003E0C16A0905090D6118C162F0BD000096
:101FD000F0FF0000FFF0000000210160416081601F
:101FE000C16001617047000010B586B06846FFF718
:101FF000F3FF154C032204212046FFF783FF032241
:1020000005212046FFF77EFF032206212046FFF729
:1020100079FF032207212046FFF774FF03220821DE
:102020002046FFF76FFF032209212046FFF76AFFD2
:10203000012101913F210901009169462046FFF7E6
:1020400027FF06B010BD0000400D0140024949695C
:10205000C906C90F01707047800C0140704710B568
:102060000146082001F08CFB10BD000081798288B8
:1020700009040A43C179037A09051B0619430A4377
:10208000417A09070A43817A49070A43C17A8907D5
:102090000A4303490A600068C8600020486070472E
:1020A0000003014006498180002181710122C27133
:1020B000027242727D228172D2000260C172704748
:1020C000FF0300000EB56846FFF7ECFF0120400259
:1020D0006A46908000209071D07101211172517276
:1020E0009172D072044800906846FFF7BFFF01204C
:1020F000FFF7B5FF0EBD0000007C9200F8B5044666
:102100004068803407468568E020465F1848761CA2
:102110004643E06B783701683846FEF7E5FA01463A
:10212000206C4068002800DA4042814200DC8035A3
:102130003846296FFEF7D8FA314602F09AF90906B7
:10214000000A0843216C08623846696FFEF7CCFA32
:10215000314602F08EF90906000A0843216C4862F4
:10216000206C01688161206C183002F07BFEF8BDA4
:10217000894100007047000010B572B62248234C18
:10218000A062A06821140843A060C8000168820012
:102190001143016000F064F8FFF787FA01F098FF3F
:1021A000FEF728F9FEF762F9FFF71EFF00F09FFD2A
:1021B00002F07EF8FFF740FA00F0DCFFFEF7A5FB27
:1021C000FFF780FF01F0D2FE642001F00CFB02213A
:1021D000002002F099F90221092002F095F901216D
:1021E0000E2002F091F901210F2002F08DF901215A
:1021F000102002F089F90E2002F07AF9002002F096
:1022000077F90020A06210BD837A000080000040B2
:102210000346002010B4012189030246401800B291
:102220000446444364009C4201DD401A00B2521C43
:10223000491092B20E2AF1D3411C09B20A464A4310
:102240009A1A540001D4520001E05200524204464E
:1022500044431B1B5B009A4200DA084610BC7047DF
:102260000F200249800248607047000000170140BB
:10227000F8B5054604468034208B29460C310027EA
:1022800002060091002A0DDA40060BD5084602F03E
:10229000CFFA002806D0686802F0D8FE208BC22151
:1022A00088432083208B81071BD42E46400630367E
:1022B00000280ADBE88D012802D00120B08513E058
:1022C0000020B085208B402108E0009802F0B0FA91
:1022D000002809D00020B085208B022108432083EC
:1022E00002E0000600D401273846F8BDF8B50F46D5
:1022F00005461349000144181646591C1148FDF7BC
:1023000015FF0146002020706780A680E0802181B3
:102310000D49E0606A008B5A14212E460B4C4E4347
:1023200031190B810A4B9A5A4A81A051094AE80196
:102330008018406A5022825E50424860F8BD00001A
:10234000D0100020FF7F0000240000209C100020FF
:1023500026000020FC01002070B5064602F0CCFCEF
:10236000050014D0304601F05FFB34468034208BEA
:1023700040050CD53046FFF7A7FB3046FFF75EFC63
:10238000208B01218902884308210843208330469D
:1023900002F0A8FA304601F015FA284670BD000098
:1023A00010B572B6FEF726F8FEF760F800F09FFC55
:1023B0000548426BC1140A4342630448426B0A4316
:1023C000426362B610BD0000400401404005014078
:1023D000F8B50446002520300572276D1C213846CB
:1023E000666DFDF743FF206A1C2100883881206A52
:1023F00040887881A06E408900047860A06E0089D2
:10240000000438603046FDF731FF206A8088308153
:10241000206AC0887081A06EC08800047060A06EC1
:10242000808800043060A06D4580A06D0580E06C60
:10243000056045608560C560658712482087606CCF
:102440004580606C0580E06E4560E06E0560A06CC4
:102450004580A06C0580E06D0580E06D4580E570ED
:10246000206E216F808940084880216FC880216FCD
:102470000881216F40420880216F8880216F488148
:10248000F8BD0000FF7F0000F8B5C4212B4A41438E
:102490008D1822212A4A41438C182A4900014118EB
:1024A0000120A070E070A868007C2075A868808971
:1024B0002080400006B2207D012821D028683146C6
:1024C000006BFFF7F9F8E08229687043098E081A5B
:1024D000A9688989081A2083E08A401CE08228685C
:1024E0003146456B2846FFF7E7F860837043281AAA
:1024F00000B2A083002802DD608B401C6083F8BD21
:1025000008680821415E408908182968096B471846
:1025100031463846FFF7D0F8E082A9687043381A90
:10252000898900B2814206DC401A081A2083E08AB9
:10253000401CE082D3E740422083D0E7280F0020F0
:10254000781000203C10002010B502F079FB10BD7F
:10255000F8B5284C00202070274801786170816808
:102560000746897BA1709C370646EC36E760054636
:102570006661B4350346C8330146A5610C31236159
:10258000E16142681D4862622063184621461230AC
:102590008031E0630846283020653830A0651C385B
:1025A00060653438E064A81D656720670846203000
:1025B000E0664430E065001D2062104662663030FF
:1025C0002066443267630E48A266A0672046891DD4
:1025D0000A334034361D4AC44C3C00F04BFF0948D6
:1025E000E06705480A218068415E002002F0F2FCA5
:1025F000F8BD0000FC010020AC000020C93500003F
:1026000020540000F0530000F8B50546044680341D
:10261000208B29460C31002782060091002A0FDA10
:10262000C0060DD5084602F003F9002808D06868F6
:1026300002F0B2FD208B3021884340084000208307
:10264000208BC10704D0800600D401273846F8BD8E
:102650002E46C006303600280ADBE88D022802D05C
:102660000220B085F2E70020B085208B102108E021
:10267000009802F0DDF80028E8D00020B085208B1B
:10268000012108432083E1E7F0B4C421204A4143FB
:102690008E18314680360C31B446336B726B0E4661
:1026A00080361C4F356A7C425F601C605760146046
:1026B00000249C6194619C8294822F881F816F8882
:1026C0005F81AB881381EB8853818C61CC61B268E8
:1026D0000D4652688A65B268603553681360CC64F1
:1026E0000C650C638C866C710C672C721C210A4A79
:1026F000AC714143EC718A1866463263074A891807
:1027000071630C21484306494018F063F0BC7047E0
:10271000280F00200000018004100020201000205D
:10272000EC0F0020FEB506460020344680340190B0
:10273000208B31460C3182050091002A0EDAC0054B
:102740000CD5084602F074F8002807D0706802F033
:102750009FFD208BC121890088432083208B354633
:10276000410700273035002917DBC0050AD4F08D5A
:10277000032802D00320A88515E0AF85FF21208B18
:10278000013107E0009802F053F800280BD0AF8524
:10279000208B04210843208305E0AF85208B800532
:1027A00001D4012001900198FEBD10B502F052FA4B
:1027B00010BD0189002903D18030C08AC00401D531
:1027C00001207047002070478030C08AC10703D0C5
:1027D000C00B01D001207047002070478030807D01
:1027E0004006C00F7047000010B5074C21468031ED
:1027F000C88B002801D0401EC8832046FFF7ACF8E4
:10280000204602F088F810BD1003002008494289D4
:102810000A6082894A60C2888A600289CA60028A24
:102820000A61C2894A6102880A6340884863704726
:10283000000C0140F8B504460121880200F0A0FF19
:10284000FE48FD490160204620304279817992009E
:1028500011430279C378D2001B011A4311438278D5
:1028600052011143E27F92011143A27FD201114331
:10287000427800781202114340020143607F8002D7
:102880000143207FC0020143EC488038C163EB481C
:10289000A18EC0380163E18E4163218F8163618F16
:1028A000C163E64821888038016061884160214623
:1028B0006031CA7C887C120110430A7D4B7D520135
:1028C0009B011A4310438A7D12021043CA7D1203F2
:1028D00010430A7E520310434A7E92031043D74AA4
:1028E000803A5063D548A28F80380262E28F4262FC
:1028F00022464032138883625388C362CF48D04E49
:10290000403846612046A030C57883786D002B435F
:10291000057A477AAD00FF003D432B43857A2D01B0
:102920002B43C57A6D012B43057BAD012B43457BC2
:10293000ED012B430579AD022B434579ED022B4385
:1029400085792D032B43C5796D032B43857BAD031F
:102950002B43BA4D403D2B60057CC37B6D002B4360
:10296000457D877DAD00FF003D432B43C57D2D0197
:102970002B43057E6D012B43457EAD012B43857EA8
:10298000ED012B43457CAD022B43857CED022B43AF
:10299000C57C2D032B43057D6D032B43C57EAD0305
:1029A0002B43A64D403DAB60037F1D01437F5B0180
:1029B0001D43837F9B011D43C37FDB011D432346D2
:1029C000C0339F783F023D43DF787F023D439B4FFA
:1029D000403F3D61994D803D2E619688AE61D6881D
:1029E000EE611E882E631E7E5D7E76003543DE7DA1
:1029F0009F7DB600FF003E4335435E7D3601354383
:102A00001E7D76013543DE7CB60135439E7CF601A2
:102A100035435E7C360235431E7C76023543DE7BD1
:102A2000B60235439E7BF60235435E7B3603354363
:102A30001E7B76033543DE7AB60335439E7AF60372
:102A400035437E4E403EB5615E791D797600354353
:102A50009E79DF79B600FF003E4335431E7A5B7AEC
:102A6000360135435B011D43744B403BDD61557AB4
:102A7000137A6D002B434D780E78AD00F600354388
:102A80002B43557D2D012B43157D6D012B430D7B74
:102A9000AD012B43258DED012B43957A2D022B4360
:102AA000D57A6D022B43CD78AD022B438D78ED02A4
:102AB0002B43D57D2D032B43957D6D032B434D7B00
:102AC000AD032B43658DED032B435C4D403D2B62E5
:102AD000557B137B6D002B434D790E79AD00F600CD
:102AE00035432B43557E2D012B43157E6D012B4322
:102AF0008D7BAD012B43A58DED012B43957B2D02E5
:102B00002B43D57B6D022B43CD79AD022B438D79C1
:102B1000ED022B43D57E2D032B43957E6D032B4376
:102B2000CD7BAD032B43E58DED032B43434D403D62
:102B30006B62557C137C6D002B434D7A0E7AAD0091
:102B4000F60035432B43557F2D012B43157F6D0137
:102B50002B430D7CAD012B43258EED012B43957C42
:102B60002D022B43D57C6D022B43CD7AAD022B4336
:102B70008D7AED022B43D57F927F2D032B43520399
:102B800013434A7C92031343628ED20313432B4AAE
:102B9000403A9362294AA388C03A1360E38853609D
:102BA000238993606389D360A3891361E3895361A7
:102BB000238A9361638AD361A38A1362E38A53628F
:102BC000238B9362638BD3628034CA7F2378920015
:102BD000DB001A438B7E1B011A43CB7E5B011A4339
:102BE0006378DB011A434B7F1B021A438B7F097FFB
:102BF0009B021A43C9030A43104940390A63E17929
:102C0000227A8900D2001143A27812011143E2789E
:102C100052011143627AD2011143627912021143C7
:102C2000A279920211432279D2031143034A403A16
:102C30005163E17AA27A05E0ADDE0000C00C0140EC
:102C4000FFFF000052001143627B237B9200DB00F8
:102C50001A431143E27B12011143A27B520111433B
:102C6000627C92011143227CD2011143E27C120268
:102C70001143A27C52021143627D92021143227DD4
:102C8000D2021143154A9163E27DA17D52001143A6
:102C9000227E637E9200DB001A431143A27E120162
:102CA0001143E27E52011143227F92011143627F60
:102CB000D2011143A27F12021143E27F520211435B
:102CC0000278407892021143C00201430348C16375
:102CD0000248034940300160F8BD0000800C01400B
:102CE000FECA000010B5E421FDF7C0FA10BD70B5B2
:102CF000BAB0002001F0C4FC064601F0A9FD04466C
:102D0000304601F0FBFC0546B0798607B60F6846F1
:102D1000FFF7E8FF08AB9E7101225A710C2030AB1F
:102D200018705870901E38906B46DA771C8000211E
:102D30001985598599859D87DD87597708AB597025
:102D400010AB998018AB9974DA74197528205975ED
:102D5000001B6B469886641EDC8610AB1A72597293
:102D60009A72D9721A73597318AB1973597399738C
:102D700020AB9972DA7219735A739973DA7328ABAC
:102D80009970D970997320AB9A75DA751A765A765C
:102D90009A76DA7618AB997628AB197718AB5A770A
:102DA000D977DA7628AB597718AB9A7720AB1970B8
:102DB0005A7018AB1A776846FFF73CFD02F088F8A6
:102DC0003AB070BD70B5044605784069818D2069C0
:102DD00002290ED001291FD0032928D0042931D07F
:102DE000404A914236D1428C4B1C9A4232D04284A6
:102DF00071E0428C022A6DD02846FFF745F828463C
:102E0000FEF726F8284601F039FD010002D02846D9
:102E100002F0A4F802205AE0428C012A5AD020463F
:102E2000FFF7D6FA2846FFF72FFC01204FE0428C2F
:102E3000032A4FD02046FFF7CBFA2846FFF724FCA1
:102E4000032044E0428C042A44D02846FFF71CFBB0
:102E500004203CE0052908D006290FD0072916D008
:102E600008291DD0092923D034E0428C052A31D00D
:102E7000E06FC16901208847052028E0428C062ABE
:102E800028D0E06FC1690220884706201FE0428CED
:102E9000072A1FD0E06FC16903208847072016E08A
:102EA000428C082A16D0E06F006A804708200EE0A6
:102EB000428C092A0ED0E06F806A8047E16FE0689B
:102EC000496A8847E0680078002804D10920216910
:102ED000488400E041846069808D002801D1216927
:102EE000488470BD0108000070B5264C2046FFF7ED
:102EF00069FF6069E16E8068254648602035216978
:102F0000687A88702069297A20300170E06E216922
:102F1000267800684860E0682169C08908813046E9
:102F200001F05CFC21690882304601F077FC2169E0
:102F3000C881304601F034FC21690883304601F035
:102F40000DFC21694883304601F052FC21698883D9
:102F5000287A012804D1304601F072FC21694860CA
:102F6000E06821690078C870002000F03DF9204633
:102F700002F03EF9216D626D00201431143202F02E
:102F8000E7F970BDFC010020F8B5064601F0DEFB54
:102F90004468A0687834816E2046FDF7A5FB094996
:102FA000B5004851074FFF212D313F1D002E20460F
:102FB00003D0FDF79FFB7851F8BDFDF79BFB386010
:102FC000F8BD00001C00002070B50546064604460A
:102FD0003035783600F063FC20468030C18A01220B
:102FE00092021143FF34C182013460882188E88055
:102FF000A980012028730320A8700121304601F028
:10300000F5FF70BD70B5014603468030C28B0124C8
:1030100030317833A402002A14D0521E1204120C4C
:103020000546C2830ED0C28AA243EA8202200873F8
:103030000020C8808880886088700121184601F0CF
:10304000D5FF70BDC28A2243C282EFE770B5044645
:10305000064605463034783600F0F8FD284601F083
:1030600041FCE91DF93148880988E080A18080355C
:10307000286C01214068A060012020730620A07008
:10308000304601F0B3FF70BD70B5044606460546F4
:10309000303478368030C18A49084900C182C90B72
:1030A00001D0012100E002212173808C6085052080
:1030B000E0810020A0700121304601F057FFA87B7D
:1030C000012804D00021304601F090FF70BD01219D
:1030D000F9E7000030B5234D214AAA62EC052269C8
:1030E000636A002806D001280DD0022816D00328D4
:1030F00020D02AE090084A688000024304208343DD
:103100008868800008E00C20824348688000024301
:10311000082083438868C000034316E0104630222D
:1031200090434A68120102431846102398438B6863
:103130001B0109E0C0208243486880010243184611
:10314000202398438B685B010343032000028243E2
:10315000086800021043206163620020A86230BD4D
:10316000837A00008000004003210160416000215B
:10317000816070470EB56846FFF7F6FF002001F04A
:103180007FFA407C00210091012102910190694663
:103190000020FFF79FFF69460120FFF79BFF69466C
:1031A0000220FFF797FF69460320FFF793FF0EBD4C
:1031B0000B4B0A4919600A49402240390028086B24
:1031C00007D010430863486B104348630020186021
:1031D000704790430863486B9043F6E7ADDE00000C
:1031E000C00C014070470000C421F0B44843254999
:1031F000401805468C35876EAA680C30002F00DA1F
:103200007F42014660318B79002B06D001230B727F
:103210001468546000242C604B715368002B01DB50
:103220001C4600E05C42466FA64204DC002B00DA3C
:1032300076422E6000E02B60C36FA34201DC0123C5
:1032400000E000230B728B79002B18D14B79526868
:10325000002BC36D09D0534305D4426FA24202DA5A
:10326000806FB8420BDB002008E0534307D4426F65
:10327000A24204DC806FB84201DC01204871F0BC3E
:1032800070470000280F00208C46F0B5C421414350
:10329000C423674A5843664B8918C5182E46C02276
:1032A0000C46525C0C360C344C3580360F6887B0B7
:1032B000002A66D08031086B0190486B009038205E
:1032C0000222205EAA5E831A2269A07D53430690E3
:1032D0000341E16CA06805904143C813C1183E2327
:1032E000E35EE06D04904343E068DB1303905843D2
:1032F000637D02931841401886463A200423205EDD
:10330000EB5E6146C31A53430698226D034105984C
:1033100049884243D013C2183C23E35E04984343D8
:103320000398DB135843029BA18761460988184123
:10333000E187101A206570463C21E064615E411A05
:103340000198C1600198FEF7CBF868803E21615E6C
:10335000206D411A0098C1600098FEF7C1F8A8805E
:10336000B1680968002906DB0222AA5E5142FDF716
:103370007FFEE88505E00221695E4042FDF778FEA8
:10338000E885206FE98D8212891ABA8B09B24A4307
:1033900080182067316A8012498900B2E26941438E
:1033A0005118E161A26909125118A161217FE161FF
:1033B000316A098941430813A169891341182046DC
:1033C00060308279002A11D14279002A03D1A261AA
:1033D00022671146E261C279002A07D03368A269E8
:1033E0009B03D21AA2610022E261C27130684018C8
:1033F000E065E18C4843616D401860657168486024
:10340000B88B0121E26D8902091A4243A06D89B28D
:10341000484310188012A065B1680860688D208745
:10342000A88D6087608D6885A08DA88507B0F0BDE8
:10343000280F002070B50D460C4900014418207873
:10344000002811D10A48002B205E06DA4042C1173D
:10345000FCF7E3FE6960286004E0C117FCF7DDFEBD
:10346000696028600120207070BD0000D01000202D
:103470000400000030B40278C4241146154D6143A5
:10348000836E6B504B1919468031C46C0C61C46E4D
:103490004C61856C046C8D614C62456D046D0D62F0
:1034A000CC61C4698C63846D8C62046ACC62046EE6
:1034B0009C60446E5C600346074C2C33120111196A
:1034C000CB60036EA350426F006F4A60886030BCCF
:1034D00070470000280F00203C100020F8B504467B
:1034E00013481D46007816460F46002801D100F00B
:1034F0002FFF0F48032C17D2EFF31081012282F324
:1035000010881822624310181830002C05D007606C
:103510004660856000220261C260069A4261C8B2BC
:1035200080F310880020F8BD0020C043F8BD0000E3
:10353000F00D0020F8B507460A48154600780E46FB
:10354000002801D100F004FFEFF31084012080F384
:1035500010882A463146384600F006F8E1B281F379
:103560001088F8BDF00D002070B50E4618214843B4
:10357000134914464518E86A1835002804D0012874
:103580000FD0022805D113E0284600F015FFA04215
:1035900001D2002411E022463146284600F04BFFBC
:1035A0000BE0284600F008FFA042F4D20446F2E700
:1035B0003146284600F00FFF0446204670BD00004B
:1035C000F00D0020704770478168CA884B88D21A76
:1035D0000A8281680A898B88D21A4A828068018AA5
:1035E0008918494281827047F8B5584B0201D318B7
:1035F0001C689A68A646C4246043554C00190C30D8
:10360000844648880024404200B248800C5F5149FB
:103610004843A10340184042C117490C0818C01381
:1036200005B26019404200B2AC4209DC844204DCBD
:103630002646854209DD29460DE0064629460AE070
:10364000854206DC2E46844201DC014603E0214629
:1036500001E0064621467618F70FBE197610801B4A
:1036600007B2881B00B2A41BAD1B009071460C2052
:10367000085E012624B2B603A1191C684143A4893F
:10368000C9132DB28C4201DA214602E0002900DA8A
:10369000002151801C68A9194143A489C9138C4297
:1036A00001DA214602E0002900DA0021D1801C68FD
:1036B000B9194143A489C9138C4201DA214602E0B9
:1036C000002900DA0021118100991C688919414301
:1036D000C913A48909B28C4201DA214602E000290B
:1036E00000DA0021754600242C5F09B2A1421FDDDB
:1036F000E503194C25626162A16A548865464C4312
:103700006400240C5480D4884C436400240CD4807E
:1037100014894C436400240C14812A242C5F4C43EC
:10372000E4136C852C242C5F4C43E1136446A18583
:10373000518849421180D18849429180118949427A
:103740005181596840420880F8BD00003C100020BB
:10375000280F0020DA6E00000030014070470000A2
:10376000064B054A9A62DA050029516A01D00143E5
:1037700000E0814351627047837A0000800000407E
:10378000074A064B93620129D16904D08143D16174
:103790000020906270470143F9E70000837A00003F
:1037A000800000404180C1800181494201808180C8
:1037B00041817047024A00018018C903C160704707
:1037C000D0100020014630318030C28AD20B01D0A7
:1037D000012200E002220A73808C48850520C881FE
:1037E00000208870704708B500210091814202D204
:1037F00000BF491CF9E708BDF0B501680446C817C9
:1038000085B08A0A800510438B0502930390606897
:103810000023C117820A8905114380050191009098
:10382000E0682289C71705463946FCF7B9FCC20C87
:1038300049031143420320696669121804907141DB
:10384000A261E161029B03989B1A884106DA039901
:103850000298E161A061002D0ADB18E00098019B4D
:10386000101A994104DA0098E361A061002D0EDD81
:103870002846628900233946FCF792FC020E0902B1
:103880001143049A000210184E4166612061217FA5
:10389000A0698902800D084300B205B0F0BDF8B5FB
:1038A000054640682C46024680348668206C002716
:1038B0004760206C04218762A06C0623415EC35ED2
:1038C0007832994205DA491C8180FF2051308159B4
:1038D00008E00823C35E99420ADA491C8180FF2070
:1038E000553081591046FCF7F9FEE16C086005E09F
:1038F000E18A012252021143E1828780E06C01F0EB
:10390000B1FAE06C008A01B2E81DF9304180C18053
:103910008A0282602878FFF74DFF2846FEF75EFF97
:10392000002806D1FF360136F06C0104287801F03A
:1039300035FBF8BDF8B5044606468034A06C4088D7
:10394000002802D1E16B02204871E06B3546017915
:1039500000273035002909D0A26CD05F00280FD095
:103960000221515E88420DD106200FE00121017134
:10397000E16B2C48C880A06C07800220287323E0EC
:10398000052003E04900884203D10720A8850120D3
:103990002873A26C0221515E0020105E4B00C918F2
:1039A000884202DA401C10800EE0E06B4179002969
:1039B00002D0012923D007E0AF8502202873E06BF5
:1039C000C780F08D002816D0E06B407902281BD00C
:1039D00003280FD1304601F079F900280AD0E06BB6
:1039E0000771A06C0780E06BC7800120287304205A
:1039F000E16B4871F8BD0820A8850120F8E7F18D3A
:103A00000029F7D102214171F08D0028F2D1304612
:103A100000F00AF8304601F0B0FAE16B032048717B
:103A2000D8E70000CC040000F1B584B00498049CF1
:103A30004068803401467831009181680191E08AC4
:103A4000012149028843E08204980025FF300130BB
:103A500085800580C58045808560C5600199086EB8
:103A6000E16B0860E06B4577E06B0583019FE16BDC
:103A7000FF370137F86A8860E16B386BC860796B93
:103A80000098FCF72BFE616CC880B96B0098FCF7BE
:103A900025FE616C0881606C02210560606C858088
:103AA000E08A8843E082E06B0571E06B4571019E1E
:103AB0008036F06C01B20520C0020A31FCF736FBFB
:103AC000E16B0882306D01B20520C0020A31FCF7BB
:103AD0002DFBE16B4882396E0098FCF7FFFD5A49D7
:103AE00000F0C7FC0906000A0843E16C8860796EA3
:103AF0000098FCF7F3FD544900F0BBFC0906000AEE
:103B00000843E16CC860206C4560206C0560316F33
:103B10000098FCF7E9FD7D210004C900FCF706FBD5
:103B2000216C0865716F0098FCF7DEFD7D210004B3
:103B3000C900FCF7FBFA216C4865206C183001F0D5
:103B4000C2F9E06C01F0BFF9716A0520C0020A31C8
:103B5000FCF7ECFA216C002288820498B0231A50FA
:103B6000803042635D2020870199C0310291888CAA
:103B7000216C08870299C88C216C4887206C002131
:103B800001644164B16E0098FCF7A8FD216C0863E4
:103B9000F16E0098FCF7A2FD216C4863206CC563B0
:103BA000206C0561206C8560206CC560206C85658B
:103BB000206CC565206C403085840299206C098B8F
:103BC0004030C1840299088CE16B48837168009889
:103BD000FCF784FD00B20290B1680098FCF77EFD0E
:103BE0000199049A4031C98F16780BB202B230465F
:103BF0000299FEF77BFBA06C05800199888CA16C73
:103C00004880A06C85800199A26CFF314131088BFE
:103C1000D080088B498B4018A16C0881A06C45812D
:103C2000A16C388D8881A06C4582A16CF88F888248
:103C3000A06CC582A16CB88F088304980078FFF748
:103C4000A3F905B0F0BD000089410000F8B50446B5
:103C5000074680344268E06B256C018B1A23491CAF
:103C600009B20183E06BFE1DC35EF93678329942DA
:103C700039DB002101831046796EFCF735FD2860A1
:103C8000216C0868002800DA40420860A17D89079D
:103C900002D5216C404208603846FEF72FFAA86A28
:103CA000686029463878162240312B68FFF7C2FB3E
:103CB000E06B407F012805D1002028646864E16B37
:103CC00002204877387800F0F9FD002802D0E16B37
:103CD00003204877AA6869682846891A3030E96362
:103CE000FFF78AFDB080387800F0E6FCF080B1681C
:103CF000E36B8A12801A10229A5E42438818B060E1
:103D0000801270800421F068715E8212891AE36B60
:103D100012229A5E4A438018F06080123080F8BD0B
:103D2000F8B507460546783700F0E6FF2C468034A4
:103D3000064600281BD02846FFF776FE208B40055C
:103D400028460AD5FDF7C0FE2846FDF777FF208BF1
:103D5000012189028843208301E0FDF7BDFE208B0D
:103D6000082108432083E08A09020843E0822846AC
:103D700000F0B8FD2846FFF725FDE08AC00B03D010
:103D80000121384601F032F93046F8BD704700B5E0
:103D9000FDF768FA00BD00000748016A04221143DC
:103DA00001620648C178491CC1708188491C818024
:103DB000C188491CC18070470006014000030020F3
:103DC0007047704770470029016803D00122D2076D
:103DD000114301E0490049080160704770B505468C
:103DE0003C480C46854202D10121102010E03A489F
:103DF000854202D1012120200AE03848854202D1C3
:103E00000121402004E03648854203D10121802071
:103E1000FFF7B6FC20782179400709070843E16ED7
:103E2000C9060843216F89060843217A49060843D9
:103E3000217B09060843218AC9050843A18A09058F
:103E40000843218BC9040843A18B89040843218CB2
:103E500049040843A18C09040843A16A09030843E3
:103E6000E16AC9020843216B89020843616B490278
:103E70000843A16B09020843E16B09010843216C67
:103E8000C9000843616C89000843A16C49000843DC
:103E9000E16C08432860206D6860A06DE860E06D0B
:103EA0002861206E6861606EA861A06EE861606F35
:103EB000A16F400209020843E16F8034C901084341
:103EC000216889000843616849000843A1680843E4
:103ED000686270BD00060140000701400008014013
:103EE000000901400021016041608160C160016101
:103EF00041618161C161016241628162C1620163AC
:103F000041638163C163016441648164C16401658B
:103F100041658165C165016641668166C16601676B
:103F200081674167C167803001604160816070478F
:103F300070B50D4D0024E878022806D3EC70FEF72A
:103F4000D3FF00F031F8FEF74FFCA888142800D307
:103F5000AC80E8887D21C900884200D3EC80A87835
:103F6000002800D0AC7070BD0003002070B50B4C71
:103F70000948A06201214803FFF7F2FB0848FCF75B
:103F8000DDF9084D28800648001DFCF7D7F9688048
:103F900001481030A06270BD837A000080000040AC
:103FA000D01400000000002010B5044800F0CCF848
:103FB00000F008FB00F010FB10BD00009805002089
:103FC00010B5044600F0BCFBE0720020A072204651
:103FD00001F0B3F910BD70470648016AC906016ACD
:103FE00001D5102203E0890603D5016A202211437E
:103FF0000162704700110140F8B5054627480C469C
:10400000854202D10121880304E02548854203D17D
:104010000121C803FFF7B4FB002622482168FCF702
:104020006FF8214F009004E0B11C761C0098FCF75B
:1040300067F8B842F8D81D498E61401EC1B2A96028
:104040000004000E6860E079012802D0022822D026
:1040500000200021637922795B001A43A379C9000B
:104060009B000B431A4300010243207A40010243A4
:10407000607A80010243A07AC00102432A60607C1A
:10408000217C400008436862A0892861E07BA86128
:10409000A07BE861F8BD01200146DBE7001001408C
:1040A0000011014000D8B805FFFF0000800000406B
:1040B0004B21C90101600021017141718171C17100
:1040C0000172417281728181817301744174704700
:1040D00000B585B06846FFF7EBFFE1204002009095
:1040E000002001900220694688730248FFF784FF90
:1040F00005B000BD0010014010B502468032D38AE1
:10410000074C2343A410A3436400D382002901D0A9
:10411000234300E0A343D3826030C078907610BD83
:104120000180000010B504462030407F800701D593
:10413000832000E08120A072204601F0FEF8204696
:1041400000F000FB208310BDF8B50546044640682A
:104150000127FF300130818E203439438186696820
:104160001C22FF3120463531FCF767F868680026CD
:10417000FF300130818EB9438186A269002A05D1C2
:104180002088810702D4617F490702D50321217766
:1041900003E04006C00F00D12677207F002817D00B
:1041A000012819D002282FD0032852D0267768681A
:1041B0002946FF300130878368681822FF300831B4
:1041C0001D30FCF73AF86868FF3001308683F8BD8F
:1041D00020784006C00F34E0607FC1060CD5C007D0
:1041E000C00F09D02846FFF79DFF20784007C00F79
:1041F000DDD002202077DAE7AE72284601F09DF884
:10420000284600F03BFA4DE000F0B0F9002805D058
:10421000607F20210843410849006177607FC10623
:1042200003D5C007C017401C0FD0284600F088FAFD
:10423000E872AE72284601F080F82088810838467E
:1042400088430028B3D02777B1E72846FFF76AFFF5
:10425000ADE7617F480701D4002A03D02846FFF765
:10426000AFFEA4E722889007C30F28464030002BFA
:104270001CD093083A469A4316D0027C012A01D0FA
:10428000090794D5418A491C89B24182828A9142A8
:104290008DD342822020A872284601F04EF828468D
:1042A00000F04EFAE87282E7468280E74682CAE76B
:1042B00010B5A4B06846FFF715FE00200B49149115
:1042C00011900C90109019900B90491005900420BB
:1042D000074C169117911A9069462046FFF77EFD0C
:1042E00001212046FFF76FFD24B010BD80BB000008
:1042F0000006014070B5466804468034B568606EBB
:1043000000210180606EFF354180013578363046EE
:10431000296FFCF7EFF9616D48803046A96FFCF713
:10432000E9F9616D888070BD704710B5044640683A
:1043300081687830FF310131C96FFCF7DBF9142156
:10434000615E00B2814201DB012010BD002010BD82
:1043500010B5114C03202061606110A0A0612046BF
:10436000A830E061802020620021A1626162E162E8
:104370000AA020660C4860661020A0662167E166EE
:1043800061670AA1E01DFBF77CFF09A12046FBF74E
:1043900078FF2020A07110BDF00D00205465726DD3
:1043A000696E616C00000000180F00205254540028
:1043B00053454747455200008268002A06D00169EC
:1043C000C068814204D8101A401802E000207047EB
:1043D000081A401E7047F7B5054682B000200090CD
:1043E000EC6817462869A04201D9061B02E0A968BB
:1043F000201A0E1AA868761E001BB04200D8064686
:10440000BE4200D33E466868324600190399FBF766
:1044100014FF0098BF1B801900900398A4198019FD
:104420000390A868A04200D10024EC60002FD9D1ED
:10443000009805B0F0BDF7B50446C7688068E1682C
:10444000C51B606816464018B54205D90199FBF7AF
:10445000F4FEB819E060FEBD2A460199FBF7EDFEB7
:104460000199761B606849193246FBF7E6FEE66063
:10447000FEBDF0B404148BB2264682B25E430D1426
:1044800010463714584336048019002179411646E6
:104490006E43371436048019794126466E438919D4
:1044A000F0BC7047F0B4040C8BB2264682B25E4377
:1044B0000D0C1046370C5843360480190021794101
:1044C00016466E43370C36048019794126466E43F2
:1044D0008919F0BC704730B47446641E2578641C9A
:1044E000AB4200D21D46635D5B00E31830BC184749
:1044F000002805DBC106C90E01208840014908607B
:104500007047000000E100E08307FF22DB0E9A40C5
:104510008907090E9940002808DB830809489B0099
:104520001818036893430B43036070470007000F9C
:104530000838830804489B001818C36993430B4349
:10454000C361704700E400E000ED00E002E008C84D
:10455000121F08C1002AFAD170477047002001E0FD
:1045600001C1121F002AFBD17047000003480078E8
:10457000022801D00020704701207047160000205B
:1045800010B5FCF7C4FE112802DA2021081A10BD6C
:104590000F2010BD0A48017880290ED141780A29E0
:1045A0000BD18178042908D1C178012905D18179FD
:1045B000012902D1C079012800D0002070470000F5
:1045C00000FE01000348007F022801D00020704750
:1045D00001207047B8050020F0B5254A254C11464A
:1045E0004E881778711C8DB2234900230978002F5B
:1045F00004D0012F12D0022F37D124E0432902D05A
:10460000542904D008E044200EE05380F0BD002E71
:1046100002D001201070F8E72370F6E7542902D089
:10462000592906D021E0532020705580642DECD20A
:10463000F0BD002E19D0002802D17D2080015080CD
:1046400002201070F0BD592902D013702370F0BD04
:10465000002802D05380642005E07D208001558031
:104660008542F4D365202070F0BD13705380EDE7D0
:1046700016000020011000200010002000207047CC
:10468000002801D000207047014880687047000072
:10469000AC000020002801D000207047004870477F
:1046A000AC000020C4214843024940186030007D1E
:1046B00070470000280F002010B50E4A01018C1829
:1046C000C4210D4A414389186031497C002902D038
:1046D000FCF716F800E06088E08001B2E068C213E1
:1046E000891A0822A25E51430818E060C01300B284
:1046F00010BD0000D0100020280F002010B501468A
:1047000002228A5E80897D215043C900FBF70EFD9D
:1047100080B210BDC421484303494018803000696D
:104720004068000C70470000280F0020C421484357
:1047300002494018806E00B270470000280F002028
:1047400000207047C820704701207047002801D022
:1047500000207047004870471003002070B50646DF
:1047600000F03CF80446304600F038F82546454352
:10477000304600F053F80446304600F04FF844430A
:104780002819FDF745FD0449484304498013884230
:1047900000DD084600B270BD825A0000FF7F0000B5
:1047A000C1010B4810B50818006C00210222415EBF
:1047B000825E494352438818FDF72AFD0549484364
:1047C00005498013884200DD084600B210BD000094
:1047D000FC010020825A0000FF7F0000C4214843F2
:1047E000024941187620085E70470000280F00201B
:1047F000C421484308493622401801464031082365
:10480000825ECB5E5A433823C35E0A20085E434370
:104810009818C01300B27047280F0020C4214843E5
:10482000024941187820085E70470000280F0020D8
:10483000408C002801D00020704701207047000004
:104840002C21484301494018806870474C100020D3
:1048500010B5827981889207920F91400222825E80
:104860004C0005491046FFF704FE2246E317FBF70C
:1048700071FC80B210BD000040420F00FF21513199
:1048800048430349401881689E20085E7047000035
:10489000AC0000200349C0014018C16B0020085E35
:1048A00070470000FC0100200349C0014018C16BA3
:1048B0000220085E70470000FC010020C42148432C
:1048C000024940186030407C70470000280F0020EB
:1048D000C4214843024940188030C06A806970474B
:1048E000280F002010B50446406881687830896E32
:1048F000FBF7FAFE01468034206C8068002800DA5D
:104900004042012292028842E08A01DC104300E02A
:104910009043E08210BDFEB5054678301C21019021
:10492000FBF7A4FC302168180090FBF79FFC696836
:104930000120C03108816968284624220C30C83122
:10494000FBF77BFC68680027C0300781FF2069689F
:104950001D30405A002806D12846FF311822603009
:104960001D31FBF76AFC284600F038FA284600F0B3
:10497000DFF928892C46803400280AD0E08AC00458
:1049800005D5A07E002804D0E87A002801D1A97AB4
:10499000A176287A8007208B04D50121C90208431B
:1049A000208305E0010503D5012109030843208385
:1049B0002846FDF7FEFE0A21002806D0E08A4005C1
:1049C00001D5617701E009206077607F20770426B8
:1049D0000300FFF780FD0B079797971525353B4997
:1049E0005E6897002846FDF7B7FC002817D02846D8
:1049F000FFF79BFC002812D0284600F0BEFA1DE00D
:104A00002846FFF78DF900287DD02846FDF7DCFE0B
:104A1000002801D005203AE0284600F0AEFA72E006
:104A20002846FCF706FC2846FDF7CEFE002805D0F8
:104A3000E06B4079042866D1072028E0667762E0C1
:104A40002846FDF7C1FE0028D6D05CE0E08AC0050C
:104A5000C00F06D02846FEF7B7FAE08A8005C00FDF
:104A6000EED008206077EBE72846FEF7EFFA2846FD
:104A7000FDF7AAFE002802D0208BC00B43D0208C6B
:104A8000E0832420285E616CFBF782FE09206077BA
:104A900039E02846FEF7B6FAE08A4005ACD428464D
:104AA000FDF792FE2FE02846FEF7EEFA2846FFF7C4
:104AB0003CFC002827D02846FDF77BFE00280DD0BF
:104AC000208BC104C90F1ED00105C90F14D0E98D78
:104AD00009290DD000980921818514E0E08A81041C
:104AE00011D5C1040FD40005C00F85D167770AE046
:104AF0000121C902884320832846FCF7D3FB009894
:104B0000878500E06177284600F00CFB696801208A
:104B1000C031888568683022EC300099FBF78DFB46
:104B20006868FF21C030878568683531095AC90730
:104B300005D1FF301C2235300199FBF77EFBFEBD0D
:104B4000F8B50F4F0024FF20513026464643F51993
:104B500001462846FBF78AFB0948E101803808181E
:104B60006860FF20F530074960434018A860064898
:104B7000005D641C2406B855240EE4D0F8BD000086
:104B8000AC00002008FE01001C540000F8B5FF2115
:104B90001131484329490222461834468034218B7A
:104BA0004023914380221143194304239943032353
:104BB0001B02194349084900202319431027394390
:104BC00008239943D3001943E38A7068934303226F
:104BD00085685203E3829143218300F0DDFA706817
:104BE00000F034FA706800F053FB687D002802D1B1
:104BF000A87C002802D0E08A384301E0E08AB8436C
:104C0000E08240218843297DC907490E0843FF21DE
:104C1000E08201318843A97DC907C90D0843E082BC
:104C2000687EE076012802D1E16BA87E0877E07EFD
:104C3000022802D1E16BE87E0877F8BD100300205E
:104C400010B500F04FF9040002D00020FFF79EFFDE
:104C5000204610BD70B5154C58212046FBF706FBC9
:104C6000002528462570FFF715FD6060204620309E
:104C7000057761688968497FC177616889688A7F3B
:104C8000214640310A7462689268D28C8A826268D6
:104C90009268527E0A706168FD228968C97F8177B7
:104CA000417F11404177012070BD00009805002030
:104CB000FCF708FB002808D072B6FDF75DFA00F09B
:104CC000A7F962B6FFF734F9FCE7FEE710B5024634
:104CD00014468034217E0020C9070AD01046FDF713
:104CE000C7FA002805D0208BC10703D0800701D563
:104CF000012010BD002010BD10B50446FDF784FC56
:104D0000002812D02046FDF70DFD00280DD02046CA
:104D1000FDF7AEFA002808D08034208BC10705D0FB
:104D2000810703D5400701D5012010BD002010BD2B
:104D3000F8B5436804469E680096054602468034EE
:104D40000169206C0C320161206CC668B712C91B66
:104D5000878A4F43F119C160206C891281601C2140
:104D60001846515E5430FCF7C6FA294680314F6B25
:104D70000E6BBA05B10A1143401A1749615EFFF77D
:104D800078FB30184F41B021485180356F63820A5B
:104D9000009EB9050A43FF36154601362946706A5A
:104DA000FFF767FB2A46EB17FBF7FAF964220023AB
:104DB000FBF7D0F9009107462946306AFFF759FB07
:104DC000009AC019F3695141DA1718184A411105C0
:104DD000000B0843A062F8BD38000000F8B5416838
:104DE000024660328D68012391781B0304465E0001
:104DF000803480291AD006DC00290FD0202907D062
:104E0000402905D124E00127812916D0832917D014
:104E1000E08A4004400C984330431EE0E08A40089A
:104E200040004004400CE082002004E0E08A0121C0
:104E3000C903084311E0A07606E0E776002101E00F
:104E4000E7760121FFF758F9E16BA87E0877F8BDF6
:104E5000E08A4004400C1843B04340084000E08220
:104E6000D078E8E7F0B50469016800258C4226D0C7
:104E700082680026002A20D0A14204DB43689A18E9
:104E80000125426003E0C3684268D21A4260002AEA
:104E900001DB134600E05342002A02DB1F14E41931
:104EA00001E01F14E41B9BB20461002A00DA5B429C
:104EB0004360002D04D08C4201DD46600161F0BDED
:104EC0008C42FADBF0BD0021016001614160704756
:104ED0000248006A0249088070470000800C0140C7
:104EE00014000020F8B51C4DFF210127002628469C
:104EF0001131FBF7BBF92C468034204690302E70E0
:104F0000014626772031E1633031216468316164E4
:104F1000A0641831E164603121652C396165203964
:104F2000E16518312166363161660A31A1660A31C0
:104F3000E1660A3121670A3161670A31FF306F305B
:104F4000A167E0673046FFF7A5FB6860002800D145
:104F500000273846F8BD000010030020024A400137
:104F60008018818370470000B0100020028802235F
:104F70009A4349000A43028070478030018B8022A7
:104F80001143018370470000C4225043024A801835
:104F9000C030017070470000280F0020C422504329
:104FA000054A821810468030036959600369196008
:104FB0000069406810667047280F0020C4235843DA
:104FC000034BC0188030C36A1981C06A42817047A0
:104FD000280F0020034A914200DB1146024A40009C
:104FE00011527047555500002A00002002880823FE
:104FF0009A43C9000A43028070470000C42250430C
:10500000024A00218018603081747047280F002008
:1050100008B5FDF79DFAFDF797FAFDF7C6FBFCF71B
:10502000D1F9002001230090DB02034A03A10120F3
:10503000FEF754FA08BD0000F00500204A53636FE4
:1050400070655F69326932693269320070B5044651
:10505000A1686568C031898844352980A1687830A5
:10506000C031C9886980A1688031898FA980A16811
:105070008031C98FE980A168C03109882981A16880
:10508000C03149886981A268C821515E0A22514312
:10509000FBF724FBA881A068A021006E2861A0680E
:1050A000406E6861A068C06EA861A0680A588088D8
:1050B0007D215043C900FBF739F801B20520C00239
:1050C0000A31FBF733F8A883A068FF218030008DF8
:1050D000E883A06849318030408D2884A068002290
:1050E0008030808D6884A0688030C08DA884A068DE
:1050F0008030008EE884A0688030408E2885A068CB
:10510000095A825E51432963A068FF214B31002276
:10511000095A825E51436963A068FF300130406CD8
:10512000288770BDF8B54768044606461421054631
:10513000415E543778340C363846FCF7E2F860604C
:105140001A21715E3846FCF7DCF8E0601821715EC8
:105150003846FCF7C4F8A06038467168FCF7C5F81B
:1051600020612889A0616220405DA0708035E88AB6
:105170000121800A8143208804229043890008434A
:10518000E98A40220905C90F90438901084320217B
:10519000884308432080F8BD826841684032127914
:1051A0000A708268403252794A708268926C4A6012
:1051B0008268126D8A608268526DCA608268926DE0
:1051C0000A618268D26D4A61826892884A838268E5
:1051D000126BCA618268526B0A628268926B4A6281
:1051E0008268D26B8A628068006CC8627047000077
:1051F000FEB50546AC6E28212226615EA65FC06919
:10520000891B0091A18CE28B4830891A0FB2E18C86
:10521000228C891A09B20191E96E4968FCF765F898
:105220001A494843C01300D54042B0420DDB801BF1
:10523000C0030099FAF77AFF01467943C9130AB20D
:1052400001994843C01301B201E0002211461E2318
:10525000E35E242698182022A25EA65F511800B2B1
:1052600009B2864200DA3046834200DD1846262322
:10527000E35E8B4200DA19468A4200DD11468AB2AB
:1052800081B22878FFF79AFEFEBD0000CC0C00002A
:10529000F8B50546446880683034807B2074A8687F
:1052A000C07B6074A868FFF7D3FAA081A868FFF7F5
:1052B00025FAE081A86803468189FF308130C28ADF
:1052C0008F18828ABA4201DB114600E03946501835
:1052D0000221595EFFF7CDF87D2212010023FAF773
:1052E00039FF0646A089FF21801B2080A8689531E0
:1052F000095ACA190221415E1046FFF7BAF87D2704
:10530000FF003A460023FAF725FF6080AA68FF20D5
:1053100095300221805A515EFFF7ABF83A460023E0
:10532000FAF718FF6188091AE180A189301A401A3A
:10533000A080002020816081F8BD416889688031AB
:10534000896B8164426CC260C26C026141617047CA
:10535000F0B4244C43011B19234CC5012C19656979
:105360001427ED889D806569AD88DD80646910250E
:10537000A4681C605D5F9E7C6543354104269E5F8A
:10538000DF5F7E439F7D3E417443E613AC190625E3
:105390000C265D5F9E5F75439E7B35412C19148002
:1053A00004220C249A5E1C5F182562439C7B5D5F7F
:1053B000224106241C5F6C439D7E2C411D68654381
:1053C000EC13121BC4246043084C00198030C46BDA
:1053D0000220205E1C241C5F6043C013101808804C
:1053E000F0BC7047B0100020FC010020280F002006
:1053F00091060000AD060000A10600008D06000029
:10540000311200000D28000019170000C916000015
:10541000A12300004D200000B51200000000000094
:10542000E93500000000290051007A00A300CC00FB
:10543000F4001D0146016F019701C001E90111024D
:105440003A0262028B02B402DC0205032D0356030A
:105450007E03A703CF03F7032004480470049904D4
:10546000C104E9041105390561058905B105D905AE
:105470000106290651067806A006C806EF0617079A
:105480003E0766078D07B507DC0703082A085108A1
:1054900078089F08C608ED0814093B0961098809C6
:1054A000AE09D509FB09220A480A6E0A940ABA0A0B
:1054B000E00A060B2C0B510B770B9D0BC20BE70B75
:1054C0000D0C320C570C7C0CA10CC60CEB0C100D07
:1054D000340D590D7D0DA20DC60DEA0D0F0E330EC4
:1054E000560E7A0E9E0EC20EE50E090F2C0F500FAF
:1054F000730F960FB90FDC0FFF0F211044106710C8
:105500008910AB10CE10F010121134115611771112
:105510009911BB11DC11FD111F1240126112821290
:10552000A312C312E4120513251345136613861341
:10553000A613C613E6130514251444146414831427
:10554000A214C114E014FF141E153D155B157A1545
:105550009815B715D515F31511162F164C166A1692
:105560008816A516C216E016FD161A173717541717
:1055700070178D17AA17C617E217FE171B183718D2
:1055800053186E188A18A618C118DD18F8181319C0
:105590002E19491964197F199A19B419CF19E919E3
:1055A000041A1E1A381A521A6C1A861A9F1AB91A35
:1055B000D31AEC1A051B1F1B381B511B6A1B831BBC
:1055C0009C1BB41BCD1BE51BFE1B161C2E1C461C76
:1055D0005E1C761C8E1CA61CBE1CD51CED1C041D5E
:1055E0001B1D331D4A1D611D781D8E1DA51DBC1D73
:1055F000D31DE91DFF1D161E2C1E421E581E6E1EB9
:10560000841E9A1EB01EC51EDB1EF01E061F1B1F29
:10561000301F451F5A1F6F1F841F991FAE1FC31FC6
:10562000D71FEC1F0020142029203D205120652089
:1056300079208D20A020B420C820DB20EF2002217B
:105640001621292164560000000000202C000000D3
:105650004C450000905600002C000020B4140000BF
:105660005C45000000000000000000000000000099
:10567000000000000000000000000000000000002A
:1056800000000000000000000000CC0C330F555556
:020000040001F9
:08FE0000800A04010000010169
:020000040001F9
:10FE080060006000803E0000E8035555B004020021
:10FE180000000001000001010001000001000000D5
:10FE28000002AC0D1E00D00700000000000000001A
:10FE380080EE36008813000000A86100465F0000CD
:10FE4800465F00000004000060EA000000000000B7
:10FE5800C42200006C0200006C020000A40600002E
:10FE6800B80B0000C8000000B80B0000D007000065
:10FE7800D0070000D00700003200000005002C0168
:10FE8800E8030000E8030000E8030000DC050000C8
:10FE980040060000D007000098080000000000009D
:10FEA800140000003C00000000020008F401800279
:10FEB8000008BC0200000000E803000065669B998A
:10FEC80065669B990000DC05000000001400000036
:10FED80014000000E803000005000000983A000044
:10FEE800000064007017A00FE803000018FCFFFF73
:10FEF8008813000088130000983A000005000100EC
:10FF0800DC050000E8030000E803F401D007000066
:10FF180030F8FFFF010000000100000000000000B1
:10FF28000010000000000000F4010000DC050000E3
:10FF3800DC0500002C0100002C010000C800C800EE
:10FF48000000C800000000001E00230000000000A0
:10FF5800B00400007805000064006400C8000000D8
:10FF6800102700001027000000000000000000001B
:10FF7800B80B0000280A0000B00400009808000030
:10FF8800E803E803E80301011E0000007017000001
:10FF98000500E803C800DC050000000000000000C0
:10FFA8000000000000000000000000000000000049
:10FFB8000000000000000000DC0500000807000049
:10FFC800B004000000040000C8000000F401D007DD
:10FFD800D00700002C01000088130000D007D007CC
:10FFE800640000009001D007D007B80BE8030000B8
:04FFF8000000000005
:04000005000000C136
:00000001FF
