:020000040800F2
:100000000080002029130008690D0008FD0C00087D
:10001000650D0008E10900088D19000800000000C6
:100020000000000000000000000000004513000870
:10003000E5090008000000001911000885160008F5
:10004000E9090008E9090008E9090008E9090008C8
:10005000E9090008E9090008E9090008E9090008B8
:10006000E9090008E9090008E9090008E9090008A8
:10007000E9090008E9090008E9090008E909000898
:10008000E9090008E9090008E90900080000000082
:10009000E9090008E909000800000000E909000872
:1000A000E9090008E9090008E9090008E909000868
:1000B000E9090008E9090008E9090008E909000858
:1000C00000000000E909000800000000E90900083C
:1000D000E9090008E9090008E9090008E909000838
:1000E000E9090008E9090008E9090008E909000828
:1000F000E9090008E9090008E90900080000000012
:100100000000000000000000E9090008E9090008FB
:10011000E909000800000000E9090008E9090008F1
:10012000E9090008E9090008E9090008E9090008E7
:10013000E9090008000000000000000000000000C5
:10014000E90900080000000000000000E9090008BB
:10015000E9090008E9090008E909000800000000B1
:10016000000000000000000000000000000000008F
:10017000000000000000000000000000000000007F
:10018000000000000000000000000000000000006F
:10019000000000000000000000000000E909000865
:1001A000000000000000000000000000000000004F
:1001B000000000000000000000000000000000003F
:1001C000E909000800000000E9090008000000003B
:1001D0000000000000000000E90900080000000025
:1001E000E909000800000000000000000000000015
:1001F000DFF80CD000F070FA00480047091A000838
:10020000008000202DE9F04D81EA030404F0004B4A
:1002100021F0004514464FF0000A23F0004150EA57
:10022000050220D054EA01021DD0C5F30A57024648
:10023000C5F31303C1F31300C1F30A5640F480154C
:1002400043F48013A7EB0608101BD64608F2FD38CE
:1002500073EB050002D308F1010801E092185B413D
:10026000B8F1000F03DA00200146BDE8F08D002050
:100270004FF48011064684460EE0171B73EB05070A
:1002800005D3121B63EB050306434CEA010C490836
:100290004FEA300092185B4150EA0107EDD152EA73
:1002A000030012D082EA040083EA0501084305D066
:1002B000101BAB4106D20122002306E000224FF0C2
:1002C000004302E06FF0010253101AEB06004CEB02
:1002D000085110EB0A0041EB0B01BDE8F04D00F0B6
:1002E00054B80EB540F2334102910021CDE900111E
:1002F0000A460B4600F058F803B000BD30B50B4677
:10030000014600202022012409E021FA02F59D4245
:1003100005D303FA02F5491B04FA02F52844151E19
:10032000A2F10102F1DC30BD2DE9F05F05460020AD
:1003300092469B4688460646814640241BE0284656
:1003400041464746224600F0E8F953465A46C01A4D
:10035000914110D311461846224600F0CFF92D1ACC
:1003600067EB01084F4622460120002100F0C6F944
:1003700017EB00094E41201EA4F10104DFDC4846C2
:1003800031462A464346BDE8F09F10B5141E73F16E
:10039000000408DA401C41F1000192185B411A4345
:1003A00001D120F0010010BD2DE9F04D92469B4691
:1003B00011B1B1FA81F202E0B0FA80F22032904637
:1003C00000F09CF904460F4640EA0A0041EA0B019E
:1003D00053465A46084313D0114653EA010019D038
:1003E000C8F14002504600F098F905460E465046C6
:1003F0005946424600F082F9084305D0012004E046
:1004000020463946BDE8F08D0020054346EAE076F7
:100410002C4337430A986305E40AA0EB0800002246
:10042000FD0A44EA47540A3002D500200146E9E7B4
:10043000010510196941DDE9084500196941BDE868
:10044000F04DA2E72DE9FE4F804681EA0300C00F80
:100450000C46009021F0004123F00045B8EB02006B
:10046000A94105D24046214690461C460B4602460D
:1004700023F00040104347D0270DC7F30A00C3F311
:100480000A510290401A019040286BDAC3F313001E
:1004900040F4801B0098924620B10023D2EB030A5F
:1004A00063EB0B0B01985946C0F14002504600F037
:1004B00025F906460D4650465946019A00F03DF989
:1004C00010EB08006141002487EA115284EAE773C7
:1004D0001A4340D0009A62B3019A012A4FEA0752A8
:1004E00015DC001B61EB02014FF0004202EA0752EB
:1004F000CDE90042001C41F5801132462B46FFF742
:1005000053FF03B0BDE8F08F40462146F9E7001BDA
:1005100061EB0201001C41F5801300185B412018BB
:10052000A2F5001747EB030140EAD570B6196D41FB
:1005300011E06D084FEA360645EAC0754FEA0752EA
:10054000001B61EB0201001C41F5801149084FEAD4
:1005500030000019514132462B4603B0BDE8F04F40
:10056000FFF713BF0098012240000023D0EB0202E6
:1005700063EBE073009821464FEAE074B8EB0000AB
:1005800061EB0401E9E783F000435BE781F00041A0
:1005900058E72DE9FE4F81EA030404F0004421F0FE
:1005A000004100944FF0000B23F0004350EA010497
:1005B0005ED052EA03045BD0C3F30A54C1F30A5578
:1005C0002C44A4F2F3340194A0FB0254C1F31301B0
:1005D00041F48011C3F3130343F4801301FB02447D
:1005E00000FB034E840A970A44EA815447EA835782
:1005F000A4FB076802958D0A05FB07854FEA932C3B
:1006000004FB0C542705029D4FEA065847EA1637AB
:10061000B5EB08056EEB070C870E920E47EA8117C3
:1006200042EA8312A7FB0201B6EB0B0164EB000464
:100630002B0D43EA0C335E1844EB1C50DA4651464E
:10064000E7FB0201C5F313044FEA0B3343EA1453EB
:100650004FEA0432019C43EA0603A4F10C0402941D
:10066000009CCDE900B4FFF79FFE03B0BDE8F08F1A
:1006700000200146F9E7C1F30A52C1F3130140F229
:10068000FF3341F480119A4202DA0020014670479C
:1006900040F233439A42A2F2334202DC524200F06B
:1006A0003CB800F02BB8000030B5041E71F1000416
:1006B00004DB4FF00044404264EB0101141E73F16F
:1006C000000405DB1C464FF00043524263EB040379
:1006D000994208BF904230BD064C074D06E0E068E5
:1006E00040F0010394E8070098471034AC42F6D379
:1006F000FFF782FDC4240008E4240008202A04DB5C
:10070000203A00FA02F1002070479140C2F1200324
:1007100020FA03F3194390407047202A04DB203A63
:1007200021FA02F00021704721FA02F3D040C2F111
:1007300020029140084319467047202A06DBCB1758
:10074000203A41FA02F043EAE07306E041FA02F38C
:10075000D040C2F120029140084319467047000082
:1007600081B00090BFF35F8F009840F001004EF61B
:100770009451CEF2000108604EF62451CEF20001F1
:10078000086840F480300860BFF34F8FBFF36F8F6D
:1007900001B0704780B584B0039002910192039933
:1007A000029A019B4EF69050CEF2000000F002F843
:1007B00004B080BD80B588B007900691059204937F
:1007C00002200390049801280AD1FFE706980799B0
:1007D000886007980C300599022200F041F83CE04F
:1007E000069820F003000290069800F003000190A4
:1007F000029807998860FFE7019804990844052842
:1008000020D3FFE70198C0F10400009007980199F8
:1008100000EBC1000C300599009A520000F020F85E
:100820000099059800EBC100059000990498401AC2
:1008300004900020019002980430029002980799D9
:100840008860D9E70798019900EBC1000C30059941
:10085000049A520000F004F8FFE708B080BD0000E1
:1008600084B003900291019200200090FFE700986D
:10087000019988420CD2FFE70298009A50F82200B2
:10088000039941F82200FFE7009801300090EEE75D
:1008900004B0704780B582B08DF807008DF806105F
:1008A0009DF807109DF806204EF69050CEF20000FD
:1008B00000F002F802B080BD84B003908DF80B10F8
:1008C0008DF80A209DF80B0080088DF809009DF82E
:1008D0000B0000F00300C00001900199FF20884048
:1008E00000909DF80900022801D3FFE714E0039867
:1008F0009DF8091000EB8100006B009A90439DF871
:100900000A10019B99401140084403999DF8092061
:1009100001EB82010863FFE704B070478CB00B90D5
:100920000A9109920893002003900A9902918DF888
:100930000700FF2005900720049001200690FFE7A4
:1009400006980499884247D8FFE700200790FFE700
:1009500007980599884235D8FFE70B980699013129
:10096000B0FBF1F00799013100FB01F0039003980F
:100970000A99884205D9FFE703980A99401A00901E
:1009800004E00A980399401A0090FFE7009803904A
:1009900002980399884209D9FFE7039802900798C3
:1009A00009990870069808990870FFE7029820B91D
:1009B000FFE701208DF8070004E0FFE7079801300A
:1009C0000790C5E79DF8070008B1FFE704E0FFE7DF
:1009D000069802300690B3E702980CB0704700000A
:1009E000FFE7FEE770470000FFE7FEE780B58AB04B
:1009F00002200121089100F091FB0899042000F0E9
:100A00008DFB09A8039000F055F903994FF440605D
:100A10000590ADF82400032001908DF826001020E9
:100A200002908DF8270040F20040C4F204000490C8
:100A300000F03CF8039800F03DF9019A0298039900
:100A4000C0230793ADF824308DF826208DF82700B9
:100A500040F60000C4F20400069000F027F8049865
:100A60000599089A00F034F906980799089A00F059
:100A70002FF90AB080BD000080B582B00190ADF8BA
:100A800002100198BDF8021000F0F2F830B9FFE74B
:100A90000198BDF8021000F003F905E00198BDF8D7
:100AA000021000F0F3F8FFE702B080BD86B00590B9
:100AB00004910498C07800F00F0000900498C0786A
:100AC000C006002806D5FFE70498817800980843FF
:100AD0000090FFE70598019000208DF80E00FFE7D9
:100AE0009DF80E00072821DCFFE79DF80E0080002E
:100AF0008DF80F00049800889DF80E10C840C007BC
:100B000068B1FFE7019800689DF80F200F21914020
:100B1000884300999140084301990860FFE7FFE787
:100B20009DF80E0001308DF80E00D9E705980430CD
:100B3000019004984078029000208DF80E00FFE7A5
:100B40009DF80E00072820DCFFE79DF80E008000CE
:100B50008DF80F0002989DF80E10C840C00768B1CC
:100B6000FFE7019800689DF80F200F21914088430E
:100B700000999140084301990860FFE7FFE79DF85D
:100B80000E0001308DF80E00DAE70498C0782828AE
:100B900007D1FFE704980288059948691043486126
:100BA0000CE00498C078482807D1FFE70498028831
:100BB0000599086910430861FFE7FFE706B0704731
:100BC00080B582B042F2BA40C0F6000042F2A341C2
:100BD000C0F6000100F022FFFFF708FFFFE740F238
:100BE0000040C4F2040000904FF48061FFF744FF1E
:100BF00000984FF40061FFF73FFF40F60000C4F299
:100C0000040001904021FFF737FF01988021FFF792
:100C100033FF642000F0AAF8E1E7000084B00390FD
:100C20008DF80B108DF80A209DF80B0000F00700DE
:100C300080008DF809009DF80B00072804DCFFE711
:100C400003982030009003E0039824300090FFE7E1
:100C500000980190019908689DF809300F229A4088
:100C600090439DF80A209A401043086004B07047F2
:100C700082B00190ADF802100198C068BDF8021072
:100C80000840002818BF012002B0704782B00190D0
:100C9000ADF80210BDF802000199486102B070473A
:100CA00082B00190ADF80210BDF802000199086110
:100CB00002B0704781B0009000994FF6FF70088035
:100CC00000990320887000990420C87001B0704713
:100CD00082B00190ADF802108DF801209DF801005E
:100CE00028B1FFE7BDF802000199086104E0BDF8F2
:100CF000020001994861FFE702B07047FFE7FEE795
:100D000080B582B042F20E30C0F60000032101919E
:100D100000F00EF8019A42F21431C0F600010020F2
:100D2000FFF738FD0620FFF71BFD02B080BD000075
:100D300080B584B00390029100200190FFE70198F4
:100D4000029988420BD2FFE701980399095CC0B26F
:100D5000FFF7A0FDFFE7019801300190EFE704B035
:100D600080BD0000FFE7FEE7FFE7FEE781B00090EF
:100D7000009840F22001C2F200010860FFE740F253
:100D80002000C2F20000006808B1FFE7F7E701B0F9
:100D90007047000080B500F04DF84FF4E13000F0EE
:100DA00005F800F061F800F0F3F880BD80B58EB072
:100DB0000D90102000900121039100F0CBF906A8BE
:100DC000019000F0CDFD009801990D9A0692302215
:100DD00007920022089209920B920A9043F60000B3
:100DE000C4F20100029000F059FD0298039900F04E
:100DF00033FD0399022000F091F940F20040C4F263
:100E00000400049006210722FFF708FF0CA80590B4
:100E1000FFF750FF049805994022ADF830200322D7
:100E20008DF8322018228DF83320FFF73FFE0EB0E8
:100E300080BD000080B584B0684600F0A7F9019835
:100E400044F6D351C1F26201A0FB0110800900F009
:100E5000EFFB10B1FFE7FFE7FEE74FF0FF300021A7
:100E600000F096FD04B080BD80B586B002200290EF
:100E70000121049100F052F90499042000F04EF988
:100E800005A80190FFF716FF01994FF44060ADF8F7
:100E90001400032003908DF81600102000908DF8A8
:100EA000170040F20040C4F20400FFF7FFFD019874
:100EB000FFF700FF00980199039AC023ADF81430A2
:100EC0008DF816208DF8170040F60000C4F20400DB
:100ED000FFF7ECFD0499002000F00EF80499084695
:100EE00000F00AF80298049900F006F803980499B3
:100EF00000F002F806B080BD80B582B08DF8070022
:100F00008DF806109DF807000146009103283AD895
:100F10000099DFE801F002101E2B9DF80600421E2A
:100F200018BF012240F20040C4F204004FF40061F7
:100F3000FFF7CEFE28E09DF80600421E18BF0122F2
:100F400040F20040C4F204004FF48061FFF7C0FE9D
:100F50001AE09DF80600421E18BF012240F600006C
:100F6000C4F204008021FFF7B3FE0DE09DF80600F7
:100F7000421E18BF012240F60000C4F204004021C6
:100F8000FFF7A6FE00E0FFE702B080BD0000000012
:100F900080B588B042F22F30C0F6000000F03EFD70
:100FA00042F24430C0F6000000F038FD42F22C302E
:100FB000C0F6000000F032FD41F20400C4F202006D
:100FC000006800F00C00014603910C2835D8039905
:100FD000DFE801F0073333330E3333331533333364
:100FE0002C0042F2E330C0F6000000F017FD25E0CF
:100FF00042F2C130C0F6000000F010FD1EE041F2E8
:101000004800C4F202000068C00738B1FFE742F2AE
:101010005930C0F6000000F001FD06E042F28D30CC
:10102000C0F6000000F0FAFCFFE707E042F20540DE
:10103000C0F6000000F0F2FC00E0FFE704A800F0BA
:10104000A5F842F22C30C0F60000029000F0E6FC59
:101050000498FFF746F941EC100B51EC100B9FED93
:101060002C0B53EC102B01930092FFF7CBF841ECC3
:10107000100B53EC102B42F28440C0F6000000F03D
:10108000CDFC0598FFF72DF9009A019B41EC100B60
:1010900051EC100BFFF7B6F841EC100B53EC102B92
:1010A00042F22740C0F6000000F0B8FC0698FFF7B7
:1010B00018F9009A019B41EC100B51EC100BFFF753
:1010C000A1F841EC100B53EC102B42F24640C0F655
:1010D000000000F0A3FC0798FFF703F9009A019BBA
:1010E00041EC100B51EC100BFFF78CF841EC100B9E
:1010F00053EC102B42F26540C0F6000000F08EFC6D
:10110000029800F08BFC08B080BD00BF00BF00BF9C
:101110000000000080842E417047000082B00190E2
:101120008DF803109DF8030048B1FFE7019A41F2E2
:101130002801C4F2020108681043086008E0019A1F
:1011400041F22801C4F20201086890430860FFE7F9
:1011500002B0704782B001908DF803109DF8030033
:1011600048B1FFE7019A41F22C01C4F2020108687C
:101170001043086008E0019A41F22C01C4F2020118
:10118000086890430860FFE702B0704787B0069098
:10119000002005900490039002908DF807008DF8D0
:1011A000060041F20400C4F20200006800F00C00E6
:1011B0000590059800900C2800F275800099DFE8F2
:1011C00001F0077272721A727272217272726D007D
:1011D00041F20000C4F202000068C0F3C2208DF8A2
:1011E00007009DF8071041F20020C0F27A00C840C5
:1011F000069908605EE0069941F60030C0F2B7003B
:10120000086057E041F24800C4F202000168C1F3EF
:10121000026104910168C1F3074103910168C1F3C0
:1012200002210291006800F001008DF806009DF88F
:101230000600F8B9FFE741F20000C4F202000068BE
:10124000C0F3C2208DF807009DF8071041F200207E
:10125000C0F27A00C84004990131B0FBF1F0029964
:101260000131B0FBF1F00399013100FB01F0069967
:10127000086012E00498411C41F60030C0F2B7004B
:10128000B0FBF1F002990131B0FBF1F003990131AB
:1012900000FB01F006990860FFE70BE0069949F6AC
:1012A0004040086006E0069941F20020C0F27A0052
:1012B0000860FFE741F20401C4F202010868C0B20D
:1012C00000090590059A40F20400C2F20000805C1B
:1012D0008DF80700069A10689DF80730D8405060D6
:1012E0000868C0F302200590059A40F21400C2F28B
:1012F0000000825C8DF80720069B5A689DF807C0A5
:1013000022FA0CF29A600968C1F3C221059105998D
:10131000405C8DF80700069948689DF80720D0408A
:10132000C86007B07047000082B047F60000C2F204
:1013300000000190019880F30A8800F0B3F9FEF7ED
:1013400057FF00007047000080B58AB0002007906A
:10135000012106910490039041F20001C4F20201C0
:10136000086840F001000860FFE741F20000C4F2A5
:101370000200006800F00200069007980130079014
:10138000FFE706990020029039B9FFE70798B0F50A
:10139000004018BF01200290FFE70298C007002814
:1013A000E3D1FFE741F20000C4F2020000688007C9
:1013B000002803D5FFE70120069002E000200690F8
:1013C000FFE740F21C00C2F2000049F20051C0F6F3
:1013D000BA21016041F24802C4F20202019211688E
:1013E00021F001011160016841F20020C0F27A0091
:1013F0000DF117020DF11603FFF790FA0199086835
:1014000020F00C000860086840F00C0008600698A6
:10141000012840F00881FFE742F20001C4F2020116
:10142000086820F00700086040F21C00C2F20000CB
:101430000068013849F68171C1F25E61A0FB0110BC
:10144000400D04900498082803D3FFE70720049078
:10145000FFE7049A42F20001C4F202010868104357
:10146000086040F21C00C2F2000000684EF2011158
:10147000C0F2F551884209D3FFE74BF20001C4F2F4
:101480000201086840F009000860FFE741F204012A
:10149000C4F2020108680490049820F0F00004905F
:1014A000049840F0A0000490049808600868049034
:1014B000049820F460500490049808600868049030
:1014C000049820F4E06004900498086041F2480118
:1014D000C4F202010091086820F0E060086008682A
:1014E00020F47F000860086820F4E06008609DF840
:1014F000170000049DF8162040EA022208681043F5
:10150000086041F20001C4F20201086840F08070F6
:101510000860FFE741F20000C4F2020000688001A9
:10152000002802D4FFE700BFF4E741F20401C4F24F
:101530000201086820F003000860086840F002001B
:101540000860FFE741F20400C4F20200006800F006
:101550000C00082802D0FFE700BFF3E7002003904B
:10156000FFE70398C0087C2806D8FFE700BFFFE725
:10157000039801300390F4E741F20401C4F2020140
:1015800008680490049820F0F0000490049840F05B
:10159000900004900498086000200390FFE70398EF
:1015A000C0087C2806D8FFE700BFFFE7039801309A
:1015B0000390F4E741F20401C4F2020108680490C8
:1015C000049820F0F0000490049840F0800004900B
:1015D0000498086000200390FFE70398C0087C2867
:1015E00006D8FFE700BFFFE7039801300390F4E758
:1015F00041F20401C4F2020108680490049820F04A
:10160000F00004900498086000200390FFE703981E
:10161000C0087C2806D8FFE700BFFFE70398013029
:101620000390F4E701E0FFE7FEE70AB080BD0000A9
:1016300080B582B0009000980138B0F1807F03D36C
:10164000FFE70120019019E0009801384EF21401E3
:10165000CEF2000108604FF0FF300F2100F098F942
:101660004EF21801CEF20001002008604EF2100286
:10167000CEF20002072111600190FFE7019802B04D
:1016800080BD000040F22000C2F20000006840B1BE
:10169000FFE740F22001C2F200010868013808604B
:1016A000FFE7704780B584B0FFF72AFB4EF68851FC
:1016B000CEF20001086840F4700008604EF6145045
:1016C000CEF2000000688003002801D5FFE71AE091
:1016D000BFF34F8FBFF36F8F4EF65071CEF2000104
:1016E00000200860BFF34F8FBFF36F8F4EF6145189
:1016F000CEF20001086840F400300860BFF34F8F5D
:10170000BFF36F8FFFE74EF61450CEF20000006873
:10171000C003002801D5FFE73CE04EF68451CEF22D
:10172000000100200860BFF34F8F4EF68050CEF2CC
:101730000000006803900398C0F34E300290FFE76A
:101740000398C0F3C9000190FFE702990198800750
:1017500061F34C104EF66071CEF200010860019802
:10176000411E01910028F0D1FFE70298411E02912D
:101770000028E5D1FFE7BFF34F8F4EF61451CEF2AC
:101780000001086840F480300860BFF34F8FBFF35A
:101790006F8FFFE741F20001C4F20201086840F0D8
:1017A0000100086041F20402C4F20202106820F055
:1017B00003001060106820F0F0001060106820F442
:1017C000E0601060106820F460501060106820F035
:1017D00070601060086820F480300860086820F4A9
:1017E00000200860086820F080700860086820F415
:1017F0008020086041F24801C4F20201086820F02C
:1018000001000860086820F0E0600860086820F4C3
:101810007F000860086820F4E060086041F2080179
:10182000C4F202014FF0FF3008600020086041F26E
:101830003001C4F20201086840F08050086047F2AD
:101840000001C4F20001086840F440400860FFF75E
:101850007BFD04B080BD000082B001908DF80310C4
:101860009DF8030030B1FFE70199886940F001005D
:10187000886105E00199886920F001008861FFE72F
:1018800002B0704782B00190009101988068009981
:101890000840002818BF012002B0704780B588B00A
:1018A00007900691002005900798C069069949683D
:1018B000090961F305100799C8610798C06920F00C
:1018C00044000699896801F0440108440799C861F9
:1018D0000798C0690699C96861F301000799C86152
:1018E0000798806906990969C90861F3C4000799D6
:1018F00088610798806906994969890861F38200BF
:101900000799886101A8FFF741FC079843F6000199
:10191000C4F20101884203D1FFE70498059002E078
:1019200003980590FFE7059806990968B0FBF1F068
:10193000000907990862059806990968B0FBF1F05B
:1019400000F00F000799486208B080BD82B0019096
:101950008DF803109DF803000199086002B07047EC
:1019600081B0009000994FF4165008600099302023
:1019700048600099002088600099C860009A18218A
:1019800011610099486101B070470000FFE7FEE770
:1019900082B08DF8070000919DF9070000280AD455
:1019A000FFE7009800019DF907104EF20042CEF2C9
:1019B000000288540BE0009800019DF8071001F028
:1019C0000F014EF61452CEF200028854FFE702B027
:1019D0007047000080B582B0019000919DF804101E
:1019E00043F60000C4F20100FFF7B0FFFFE743F643
:1019F0000000C4F201000121FFF744FF08B9FFE72E
:101A0000F5E7019802B080BD80B582B0002001905A
:101A1000FFF7C0F9FFF7D4F8FFE7FEE70FB4054B77
:101A200010B503A9044A029800F0DAF810BC5DF87A
:101A300014FB0000D51900080000002002E008C8CF
:101A4000121F08C1002AFAD170477047002001E038
:101A500001C1121F002AFBD1704700002DE9FF5F72
:101A600082B00021DDE90430020DDDF840B003430F
:101A700018D044F61050A2F2FF32424315141198C8
:101A800001281FD0A5EB0B00401C5FEA000A4FF0B5
:101A900000064E4FDFF83891B046504615D5CAF1D2
:101AA000000413E0119801244AA3012801D16FEA30
:101AB0000B010298119AC0E90031C0E9024206B058
:101AC000BDE8F09FCBF10000DFE704460021404A6B
:101AD000491842EB0450CDE9001012E0E00707D0AE
:101AE00032463B4640464946FEF753FD804689460E
:101AF00032463B4610461946FEF74BFD06460F465A
:101B00006410002CEAD1DDE90401DDE90023BAF11B
:101B1000000F06DAFEF73DFD42464B46FEF739FD63
:101B200005E0FEF76FFB42464B46FEF76BFB0446B3
:101B30000E460022284BFEF7B7FD03D84FF0FF30CA
:101B4000014607E00022254B20463146FEF77AFC8D
:101B5000FEF791FD102409E0002C0ADB0A22002385
:101B6000FEF7E2FB039B30321A55641E50EA010275
:101B7000F2D1641C039AC4F111031444119A012A8E
:101B800003D0012208430DD10AE0084304D000200D
:101B90004FF0110B119072E7A3EB0B056D1E0DE0DA
:101BA0005B4504DD4FF0000205F1010504E003DAB6
:101BB0004FF00002A5F10105002AECD0029811991E
:101BC000C0E90231C0E9004579E700000000144097
:101BD0000000F03F300000000000F0430000E03F54
:101BE0002DE9FF4F95B09B468946064600250FE23A
:101BF000252877D100242746F84A0121059400E0E2
:101C0000044316F8013F203B01FA03F01042F7D1DC
:101C100030782A2811D06FF02F033078A0F13002ED
:101C2000092A16D8059A44F0020402EB820203EB5B
:101C300042021044761C0590EFE759F8042B0592F8
:101C4000002A03DA504244F40054059044F00204A0
:101C5000761C30782E2816D116F8010F44F00404B3
:101C60002A280DD06FF02F023078A0F13003092B15
:101C700009D807EB870302EB4303C718761CF3E789
:101C800059F8047B761C30786C280FD006DC4C2881
:101C900017D068280DD06A2814D104E0742810D019
:101CA0007A280FD10DE044F400140AE044F48014C3
:101CB00001E044F440147278824202D104F58014A9
:101CC000761C761C307866280BD013DC582877D029
:101CD00009DC002875D04528F6D04628F4D04728DE
:101CE0001AD19DE118E0632835D0642879D06528A1
:101CF00012D195E1702873D008DC6728F1D06928EB
:101D00006FD06E280DD06F2806D1B5E073282CD087
:101D1000752875D0782874D05A46179990476D1C4D
:101D200075E1C4F30250022809D003280DD0D9F878
:101D3000001004280DD00D6009F1040967E1D9F8FD
:101D40000010EA17C1E90052F6E7D9F800100D803B
:101D5000F2E70D70F0E719F8041B8DF80010002071
:101D60008DF80100EA46012003E059F804AB4FF07A
:101D7000FF3061074FF0000102D40DE008F10101CE
:101D80008846B9420FDA8045F8DB1AF808100029B6
:101D9000F4D108E008F1010188468142FADB1AF823
:101DA00008100029F6D105985B46A0EB08072146EC
:101DB0003846179A00F094FA284400EB080507E02B
:101DC0004DE029E10DE01AF8010B5A4617999047AA
:101DD000B8F10108F7D25B4621463846179A13E15D
:101DE00042E00A220092C4F302524FF0000A022A93
:101DF00008D059F804CB032A4FEAEC710AD00DE061
:101E000029E02AE009F1070121F00702F2E802C106
:101E1000914609E00FFA8CFC4FEAEC71042A03D1D9
:101E20004FFA8CFC4FEAEC71002907DA0A460021D0
:101E3000DCF1000C61EB02012D2202E0220504D549
:101E40002B228DF80420012203E0E20701D020229A
:101E5000F7E7904659E00A2102E010220DE0102138
:101E60004FF0000A00910BE010224FF0000A44F0FE
:101E700004040827009203E008224FF0000A0092B1
:101E8000C4F30252022A05D059F804CB0021032AD8
:101E900008D009E009F1070121F00702F2E802C1C8
:101EA000914605E01FFA8CFC042A01D10CF0FF0CCE
:101EB0004FF00008220728D5702806D0009B83F039
:101EC000100353EA0A0305D00EE040228DF80420E7
:101ED000012208E05CEA010206D030228DF80420DD
:101EE0008DF8050002229046009B83F0080353EA18
:101EF0000A030AD15CEA010201D1620705D530224A
:101F00008DF804204FF001087F1E582804D034A01B
:101F100003900EA802900DE036A0F9E75346604604
:101F2000009AFEF701FA84460398825C0298401EEC
:101F3000029002705CEA0100F0D1029806A9081A2A
:101F400000F1200A600702D524F4803400E0012764
:101F5000574502DDA7EB0A0000E0002000EB0A0174
:101F6000009005984144401A0590E00306D45B4672
:101F70002146179A059800F0B3F90544002706E0BA
:101F800001A85A46C05D179990476D1C7F1C4745B4
:101F9000F6DBE0030CD55B462146179A059800F066
:101FA0009FF9054404E030205A46179990476D1C6C
:101FB0000099481E00900029F5DC08E0029802997B
:101FC0005A460078491C0291179990476D1CBAF146
:101FD0000001AAF1010AF1DC65E100000928010015
:101FE000303132333435363738396162636465668F
:101FF0000000000030313233343536373839414251
:10200000434445460000000000F058F90544761CA2
:10201000307800287FF4ECAD19B02846BDE8F08F89
:10202000620700D4062709F1070222F0070CFCE83A
:102030000223E14603F000485FEA080C02D00FF2E9
:10204000702C0DE05FEA045C02D50FF2682C07E00B
:102050005FEAC47C02D00FF2602C01E0AFF2700C9A
:102060004FF0FF3823F00043CDF850C065280CD066
:1020700006DC452809D046281DD047283DD13DE043
:10208000662818D067287ED138E00021112F01DBA7
:10209000112000E0781CCDE9000106A90EA8FFF789
:1020A000DDFCDDE90F010E9A03910021009207F19A
:1020B000010A04914DE04FF000400097CDE9011076
:1020C00006A90EA8FFF7CAFCDDE90F0203920E9BDA
:1020D00011990022DDF80CA00093049211B9791C2B
:1020E00000EB010AB7EB0A0004D4C0F1FF3007F19E
:1020F000010A0490AAEB0700019044E0012F00DAE6
:1021000001270021112F01DD112000E03846CDE923
:10211000000106A90EA8FFF7A1FCDDE90F010E9A48
:102120000391002104910092BA4621070CD403992F
:10213000514500DA8A46BAF1010F05DD009AAAF18D
:102140000101515C302908D0B84202DA10F1040FC5
:1021500006DA0121CDE9011015E0AAF10101E9E754
:10216000002805DC049901440491AAEB000102E077
:10217000411C514500DD8A460499401A401C0190DB
:102180004FF000400290200704D40198504501DB35
:10219000CDF8048000208DF84F0002980DF14F0714
:1021A000B0F1004F25D02B200E9002984FF002087E
:1021B00000280CDA404202902D200E9007E00A2100
:1021C0000298FEF79BF83031029007F8011DB8F134
:1021D0000001A8F10108F2DC02980028EFD1791E75
:1021E0000E980870307800F0200040F0450007F8A5
:1021F000020D12A8C01B00F107081498007800B166
:10220000012000EB0A01019801EBE07105984144BF
:10221000401A401E0590E00306D45B462146179AFB
:10222000059800F05DF805441498007818B15A46F6
:10223000179990476D1CE00324D55B462146179AF9
:10224000059800F04DF805441CE00498002807DBD1
:10225000DDE90301884203DD0098405C179901E045
:10226000179930205A469047049805F10105401C03
:1022700004900198401E019004D12E205A461799CF
:1022800090476D1CBAF10001AAF1010ADDDC05E0FE
:1022900017F8010B5A46179990476D1CB8F10001C9
:1022A000A8F10108F4DC5B462146179A0598ABE6D5
:1022B0002D0000002B000000200000002DE9F0415F
:1022C000044600251E461746880404D405E0394616
:1022D0002020B0476D1C641EF9D52846BDE8F0816A
:1022E0002DE9F041044600251E469046C80301D55D
:1022F000302700E02027880404D505E04146384611
:10230000B0476D1C641EF9D52846BDE8F081AA448B
:102310000000000002000000E1FFFF1F020000209B
:10232000E3FFFF3F02000040E5FFFF5F0D0A000DE5
:102330000A424F415244203A204D696E692D46357C
:10234000333333000D0A4D4355203A204D4D33327F
:102350004635333333443750000D0A504C4C31204E
:1023600028636C6F636B656420627920485345294C
:1023700020757365642061732073797374656D20B3
:10238000636C6F636B20736F75726365000D0A5029
:102390004C4C312028636C6F636B6564206279203C
:1023A00048534929207573656420617320737973DC
:1023B00074656D20636C6F636B20736F75726365FA
:1023C000000D0A48534520757365642061732073BE
:1023D000797374656D20636C6F636B20736F7572B6
:1023E0006365000D0A485349207573656420617365
:1023F0002073797374656D20636C6F636B20736FEA
:1024000075726365000D0A4C53492075736564202D
:1024100061732073797374656D20636C6F636B20D7
:10242000736F75726365000D0A48434C4B20202082
:102430004672657175656E6379203A2025372E33B3
:1024400066204D487A000D0A50434C4B31202046FF
:1024500072657175656E6379203A2025372E336673
:10246000204D487A000D0A50434C4B3220204672D2
:10247000657175656E6379203A2025372E336620A5
:102480004D487A000D0A535953434C4B2046726510
:102490007175656E6379203A2025372E3366204D9D
:1024A000487A004750494F5F4C45445F546F676717
:1024B0006C655F53616D706C65000D0A54657374D3
:1024C00020257300E4240008000000202000000004
:1024D0003C1A000804250008200000200400000029
:1024E0004C1A00080000000000000000000000007E
:1024F00001020304060708090005000001020304A5
:082500000095BA0A7856341266
:04000005080001F1FD
:00000001FF
