:020000040000FA
:1000000000040020D9000000E70000008F0200007B
:1000100000000000000000000000000000000000E0
:10002000000000000000000000000000EB000000E5
:100030000000000000000000ED000000310300009F
:100040003D0300005103000053030000550300006E
:10005000F1000000F1000000F1000000E5020000E6
:10006000F10000008D02000057030000590300005A
:10007000A90100004F010000250100003901000026
:10008000C5020000F1000000F1000000F1000000D6
:10009000E30200008D030000E7020000E10200001F
:1000A0004D01000000000000000000000000000002
:1000B0000000000000000000000000000000000040
:1000C0000448854600F01CF800480047AD030000D6
:1000D000C046C04600040020064880F30888064851
:1000E000804706480047FEE7FEE7FEE7FEE7FEE73B
:1000F000FEE700000004002033030000C100000000
:10010000064C0125064E05E0E36807CC2B430C3C6A
:1001100098471034B442F7D3FFF7D6FFD803000056
:10012000E80300000348406903210843014948618E
:1001300070470000800401400348406903210843E0
:1001400001494861704700008005014070477047D1
:1001500000B51248124988620020C043486200205E
:100160004862C813C1034862C003806AC021884343
:1001700001218907886200BF012080078068012172
:10018000C90308400028F7D1642000F0C5F80548ED
:10019000034908600020886200BD0000837A0000E7
:1001A00080000040FF110000704770B504460D4606
:1001B0000121C80200F098F86868002804D00128DE
:1001C0000BD0022812D112E0606829688843606071
:1001D000206829680843206012E0606829680843A5
:1001E0006060206829688843206009E000BF60687B
:1001F000296888436060206829688843206000BFC0
:1002000000BFA868002804D020692968084320613D
:1002100003E02069296888432061E868002804D049
:10022000A06929680843A06103E0A06929688843A0
:10023000A0612869002804D0E06929680843E061CA
:1002400003E0E06929688843E06170BD416370475D
:10025000016370470021016041608160C1600161FC
:100260007047000000B585B06846FFF7F3FF6846A9
:10027000FFF7F0FF01200190C82000906946024876
:10028000FFF793FF05B000BD000D014070477047B8
:1002900010B572B605480649886200F00BF8FFF702
:1002A000E1FF642000F038F862B610BD837A0000E8
:1002B000800000400F208002014948607047000024
:1002C00000170140032004494860044840690321A5
:1002D0000843024948617047800C01408004014096
:1002E0007047704770477047094A0A4B9A62012964
:1002F00004D11A46D2690243DA6104E0054AD269A0
:100300008243044BDA610022024B9A62704700007C
:10031000837A00008000004008B50021009103E0CE
:1003200000BF0099491C009100998142F8D308BD93
:10033000704700B5FFF70CFF00BD00000348006ADE
:10034000042108430149086270470000000601408B
:1003500070477047704770470B48006A102108408B
:10036000002805D00848006A0843074908620AE0E7
:100370000548006A20210840002804D00248006A8D
:10038000084301490862704700110140704702E0CC
:1003900008C8121F08C1002AFAD170477047002010
:1003A00001E001C1121F002AFBD17047FFF770FF67
:1003B00000BF40210648FFF74BFF0648FFF7ACFFA0
:1003C00040210348FFF742FF0248FFF7A5FFF0E78F
:1003D000000D0140FFFF0F00E803000000000020B7
:0803E000000400009E03000070
:04000005000000C136
:00000001FF
