:020000040000FA
:1000000078040020D9000000E7000000910C0000F7
:1000100000000000000000000000000000000000E0
:10002000000000000000000000000000EB000000E5
:100030000000000000000000ED000000DD150000E1
:10004000E91500000516000007160000091600005B
:10005000F1000000F1000000F10000005F15000059
:10006000F1000000850B0000291800002D18000089
:1000700019090000B9040000D90100005102000074
:100080003D0D0000F1000000F1000000F100000053
:100090005D1500004D1A00006115000043150000B9
:1000A00087040000000000000000000000000000C5
:1000B0000000000000000000000000000000000040
:1000C0000448854600F058F800480047231B00000C
:1000D000C046C04678040020064880F308880648D9
:1000E000804706480047FEE7FEE7FEE7FEE7FEE73B
:1000F000FEE7000078040020DF150000C1000000CA
:1001000030B50B46014600202022012409E00D46AF
:10011000D5409D4205D31D469540491B2546954037
:1001200040191546521E002DF1DC30BD70B500247B
:100130002546002801DA01244042002901DA012580
:100140004942FFF7DDFFAC4200D04042002C00D016
:10015000494270BDD2B201E00270401C491EFBD280
:1001600070470022F6E710B513460A4604461946C2
:10017000FFF7F0FF204610BD064C0125064E05E0B6
:10018000E36807CC2B430C3C98471034B442F7D3B8
:10019000FFF79AFF301B0000501B000010B50C4900
:1001A0000968491E4A1E9141CA02012149040B688F
:1001B000084C23409A180A60592212064A60486087
:1001C000C868952212064A600A6822400A6010BD7B
:1001D000A0000040FFF7FFFF0348406903210843E8
:1001E00001494861704700008004014000B589B0B2
:1001F00001A800F037F900216846C1804181818162
:10020000C18101824182012181820021018101217C
:1002100081800621C182002101834183C183018441
:10022000418401A9094800F0B7F87F21074800F090
:10023000B0F800F049F805484030406B0121C90290
:10024000084302494031486309B000BD0004014041
:100250000348406903210843014948617047000091
:100260008005014000B589B001A800F0FBF800212D
:100270006846C18041818181C18101824182012121
:10028000818200210181012181800421C18200211C
:1002900001834183C1830184418401A9094800F09D
:1002A0007BF87F21074800F074F800F00DF805484E
:1002B0004030406B0121C902084302494031486384
:1002C00009B000BD0005014010B500230122194608
:1002D0001F4800F041F80023022201211C4800F0D1
:1002E0003BF8002301220221194800F035F80023D1
:1002F00002220321164800F02FF8002308220421CF
:10030000134800F029F8002303220521104800F0CB
:1003100023F80023072206210D4800F01DF80023D2
:10032000042219460B4800F017F80023042201218B
:10033000084800F011F800230B220221054800F0C4
:100340000BF8002305220321024800F005F810BD38
:100350000004014000050140FFB5012B04D1456EAA
:100360001E468E40354345668A109207920F8907D4
:10037000890F8900960005465035AC590F258D40F0
:10038000AC43029D8D402543960007465037BD5132
:10039000FFBD94221150704770B505460C460121EF
:1003A000084601F0DFF82088618808439021485111
:1003B000E08A0002A18A09010843618A084328668D
:1003C000208AA867A0880003E18889020843218960
:1003D00009020843618909010843A189C90008434A
:1003E000E18908436867618BC4204151A18BC82013
:1003F0004151E18BCC204151A1204001FFF7CEFEBD
:10040000154908601548FFF7C9FE134948601348AD
:10041000001DFFF7C3FE1049886010480830FFF741
:10042000BDFE0D49C8600D480C30FFF7B7FE0C4902
:1004300008600A481030FFF7B1FE094948600748D4
:100440001430FFF7ABFE0649886004481830FFF708
:10045000A5FE0349C86070BD80040140241400005B
:10046000800501400021018041808180C18001819F
:1004700041818181C1810182012141828182C182C8
:10048000002101837047704770B504460D46002C6B
:1004900004D12946402001F065F80CE0012C04D17C
:1004A0002946802001F05EF805E0022C03D12946A0
:1004B000A00201F057F870BD704700005E495F4A26
:1004C0009162D10549694278114301229207516135
:1004D000114689694022125A920311430122920760
:1004E0009161818C0903C28C1201114302891202AD
:1004F00011434289920011430278D20111434222F2
:10050000125A114301229207D26911430122920724
:10051000D1615321095CC9023722125CD201114317
:10052000C27E9201114301229207526A11430122B5
:10053000920751620021414A91625521095C89026A
:100540003922125C52021143427F1202114354229B
:10055000125C920011433822125C52001143027F58
:100560001143374A1160017909064422125A1205D3
:1005700011434822125A12041143826A1203114392
:10058000C26A12021143C268120111430269114387
:100590005222125CD20411433622125CD202114361
:1005A000827ED2001143264A91605021095A890265
:1005B0005622125C520211434C22125A120211436B
:1005C000428ED2011143828E920111433A22125C73
:1005D00052011143028E12011143C28AD20011430B
:1005E000028B92001143827F52001143828A114391
:1005F000134AD1603B21095CC9013C22125C920183
:1006000011433D22125C520111433E22125C120141
:100610001143C27FD20011432022125C9200114389
:100620002122125C520011432222125C1143044A1F
:100630001161032151607047837A000080000040FF
:100640000002014010B504465C212046FFF789FDF9
:1006500010BD00B597B06846FFF7F4FF01210420F4
:1006600000F098FF002001900021684641700121B0
:1006700001700421018101214181002141778182A2
:100680000183817701770221039104910021817612
:10069000C17681840221C18400214177018681864F
:1006A00009A88175017502210A910B9101218174BC
:1006B000C1746846FFF702FF01210846FFF7E4FE18
:1006C00017B000BD00B50D480D4988620020C04339
:1006D000486200204862C813C1034862C003806AB0
:1006E000C0218843012189078862642000F06AFFE5
:1006F0000448034908600020886200BD837A000036
:1007000080000040FF11000070B504460D46002C2B
:1007100005D129460120000300F024FF05E0012C4B
:1007200003D12946600200F01DFF70BD70B505467B
:100730000C464D484D498862C8054069A91D0122F3
:100740008A4090430121890748612078A91D88408B
:100750000121890749690843012189074861002D62
:100760003DD1084640694006C00F00280DD04048E2
:10077000FFF714FD3D494039C8623D48001FFFF7AF
:100780000DFD3A494039886214E001208007406934
:100790004006C00F00280DD135480838FFF7FEFC91
:1007A00032494039C86232480C38FFF7F7FC2F490C
:1007B00040398862022020560001E17808432B4925
:1007C0004039C969084329494039C8610806C069E8
:1007D0006178C902084301218907C86140E0012D01
:1007E0003ED1A80740690006C00F00280ED020485F
:1007F0001030FFF7D3FC1D49403948631C480C30CA
:10080000FFF7CCFC19494039086314E00120800748
:1008100040690006C00F00280DD115480830FFF7C9
:10082000BDFC124940394863A3204001FFF7B6FCE4
:100830000E4940390863022020560003E17809027E
:1008400008430A494039C969084308494039C86121
:100850000806C0696178C903084301218907C86196
:1008600004480249886270BD837A0000800000401D
:100870005C140000FFFF00000905090D002802D1EB
:10088000034A116203E0012801D1014A5162704715
:100890004000004010B5044604212046FFF761FCEB
:1008A00010BD000038B56846FFF7F4FFAF24A40080
:1008B00001216846017000214170C1708170694654
:1008C0000020FFF733FF68460078012802D14B254E
:1008D0002D0104E068460078002800D10C4D20036B
:1008E0002946FFF723FC04460A48844200DD04E061
:1008F000002C01DA002000E02046044621460020BA
:10090000FFF7BAFF01210020FFF7FEFE38BD00000F
:10091000F2120000FF0F0000704710B501214804DB
:1009200000F038FE10BD70B504460D460121C80226
:1009300000F030FE6868002804D001280BD002289F
:1009400012D112E0606829688843606020682968D5
:100950000843206012E060682968084360602068EE
:1009600029688843206009E000BF606829688843DF
:100970006060206829688843206000BF00BFA868C5
:10098000002804D0206929680843206103E0206919
:10099000296888432061E868002804D0A069296894
:1009A0000843A06103E0A06929688843A061286921
:1009B000002804D0E06929680843E06103E0E069A9
:1009C00029688843E06170BD30B50C46230001F012
:1009D0003EF810090F171E252B333A41474F565D3D
:1009E000636B7279016A394D29408B1803626AE0A2
:1009F000016A364DE13D294013015B18036262E054
:100A0000016A334D294013025B1803625BE0036AFD
:100A10001905090D13035B18036254E0416A2B4D5D
:100A200029408B1843624EE0416A284DE13D294040
:100A300013015B18436246E0416A254D29401302C9
:100A40005B1843623FE0436A1905090D13035B1805
:100A5000436238E0816A1D4D29408B18836232E081
:100A6000816A1A4DE13D294013015B1883622AE037
:100A7000816A174D294013025B18836223E0836A61
:100A80001905090D13035B1883621CE0C16A0F4D41
:100A900029408B18C36216E0C16A0C4DE13D294024
:100AA00013015B18C3620EE0C16A094D29401302AD
:100AB0005B18C36207E0C36A1905090D13035B18CD
:100AC000C36200E000BF00BF30BD0000F0FF0000C7
:100AD000FFF000000021016041608160C1600161A0
:100AE0007047000000B585B06846FFF7F3FF0222AB
:100AF0000B212348FFF768FF02220C212048FFF753
:100B000063FF02220D211E48FFF75EFF00200190C7
:100B10000720C002009069461948FFF704FF03222E
:100B2000042117484030FFF74FFF032205211448E6
:100B30004030FFF749FF0322062111484030FFF7FC
:100B400043FF032207210E484030FFF73DFF0322F9
:100B500008210B484030FFF737FF032209210848DE
:100B60004030FFF731FF012001903F20000100904D
:100B7000694603484030FFF7D6FE05B000BD0000CF
:100B8000000D014010B5024800F00CF810BD000047
:100B90001400002010B504462146082000F0FAFC9D
:100BA00010BD000000B50246134840680121090449
:100BB000084000280BD0D06B0F4989684018D063DB
:100BC000012000040C49486000F0BCFC10700A4889
:100BD0004068012149040840002809D00846064918
:100BE0004860D07804210843D07000212820815427
:100BF00000200149486000BD0003014081888279DE
:100C000012041143C27912051143027A12061143EC
:100C1000427A12071143827A52071143C27A92072D
:100C20001143034A11600168D1600021516070478F
:100C30000003014007498180002181710121C171B8
:100C400001724172002181727D21C9000160002181
:100C5000C1727047FF0300000EB56846FFF7EAFF58
:100C6000012149026846818000218171C171012101
:100C70000172417281720021C1720448009068467D
:100C8000FFF7BCFF0120FFF785FF0EBD007C92003F
:100C90007047000010B572B62248234988620846A2
:100CA0008068091408432049886000F03FF8FFF786
:100CB00034FEFFF717FF00F055FEFFF797FAFFF736
:100CC000D1FA00F03BFB00F065FEFFF7EBFD00F012
:100CD0001DFCFFF7BEFCFFF7BFFF00F085FD6420A1
:100CE00000F070FC0221002000F0D0FE022109205B
:100CF00000F0CCFE01210E2000F0C8FE01210F20E3
:100D000000F0C4FE0121102000F0C0FE0E2000F013
:100D1000ADFE002000F0AAFE092000F0A7FE62B69A
:100D200010BD0000837A0000800000400F20800288
:100D30000149486070470000001701400320044942
:100D400048600448406903210843024948617047EC
:100D5000800C01408004014010B504460121880246
:100D600000F018FCFD48FE4908602620005D2521A2
:100D7000095D890008432421095DC9000843232136
:100D8000095D090108432221095D49010843E17F0A
:100D900089010843A17FC90108432121095D090296
:100DA00008432021095D49020843617F8902084305
:100DB000217FC9020843EA498039C863A08EE84907
:100DC000C0390863E08E4863208F8863608FC863F2
:100DD0002088E34980390860608848607220005D9F
:100DE0007321095D090108437421095D4901084324
:100DF0007521095D890108437621095D09020843CF
:100E00007721095D090308437821095D49030843F7
:100E10007921095D89030843D14980394863A08F4E
:100E20000862E08F48624020005B88624220005BDD
:100E3000C862CC48CA4940394861A220005DA3215C
:100E4000095D49000843A821095D89000843A921DB
:100E5000095DC9000843AA21095D09010843AB21C6
:100E6000095D49010843AC21095D89010843AD21B1
:100E7000095DC9010843A421095D89020843A52130
:100E8000095DC9020843A621095D09030843A7219A
:100E9000095D49030843AE21095D89030843B04950
:100EA00040390860AF20005DB021095D490008436A
:100EB000B521095D89000843B621095DC9000843D1
:100EC000B721095D09010843B821095D49010843BB
:100ED000B921095D89010843BA21095DC9010843A7
:100EE000B121095D89020843B221095DC9020843A5
:100EF000B321095D09030843B421095D490308438F
:100F0000BB21095D89030843954940398860BC20AD
:100F1000005D0001BD21095D49010843BE21095D55
:100F200089010843BF21095DC9010843C221095D48
:100F300009020843C321095D490208438849403931
:100F4000086188488649803908614420005B8861CF
:100F50004620005BC861C020005DC121095D090217
:100F600008437F4980390863D920005DD821095D95
:100F700049000843D721095D89000843D621095D4E
:100F8000C9000843D521095D09010843D421095D41
:100F900049010843D321095D89010843D221095D34
:100FA000C9010843D121095D09020843D021095D27
:100FB00049020843CF21095D89020843CE21095D1A
:100FC000C9020843CD21095D09030843CC21095D0D
:100FD00049030843CB21095D89030843CA21095D00
:100FE000C90308435E4940398861C420005DC521BA
:100FF000095D49000843C621095D89000843C721EE
:10100000095DC9000843C821095D09010843C921D8
:10101000095D4901084352494039C8614820005DD3
:101020004921095D490008436121095D89000843A0
:101030006021095DC90008435521095D0901084384
:101040005421095D490108436C21095D8901084368
:10105000218DC90108434A21095D090208434B213A
:10106000095D490208436321095D89020843622141
:10107000095DC90208435721095D09030843562148
:10108000095D490308436D21095D89030843618DAA
:10109000C90308433249403908624C20005D4D21A4
:1010A000095D490008436521095D89000843642101
:1010B000095DC90008435921095D09010843582108
:1010C000095D490108436E21095D89010843A18D2D
:1010D000C90108434E21095D090208434F21095DFA
:1010E000490208436721095D890208436621095DB9
:1010F000C90208435B21095D090308435A21095DC0
:10110000490308436F21095D89030843E18DC90341
:1011100008431349403948625020005D5121095D60
:10112000490008436921095D890008436821095D78
:10113000C90008435D21095D090108435C21095D7F
:10114000490108437021095D89010843218EC901C5
:1011500008435221095D0902084305E0ADDE0000A5
:10116000C00C0140FFFF00005321095D4902084304
:101170006B21095D890208436A21095DC9020843A0
:101180005F21095D090308435E21095D49030843A6
:101190007121095D89030843618EC90308436149D0
:1011A0008862A0885F4980390860E08848602089AB
:1011B00088606089C860A0890861E0894861208AE8
:1011C0008861608AC861A08A0862E08A4862208BD0
:1011D0008862608BC8627F20005D80008021095D8D
:1011E000C90008437A21095D090108437B21095D93
:1011F000490108438121095DC90108437D21095D39
:10120000090208437E21095D890208437C21095DAA
:10121000C9030843434908638720005D8000882193
:10122000095DC90008438221095D09010843832142
:10123000095D490108438921095DC90108438521E8
:10124000095D090208438621095D8902084384215A
:10125000095DC9030843334948638B20005D8A2137
:10126000095D490008438D21095D890008438C21EF
:10127000095DC90008438F21095D090108438E21DA
:10128000095D490108439121095D890108439021C5
:10129000095DC90108439321095D090208439221B0
:1012A000095D490208439521095D8902084394219B
:1012B000095DC90208431B4988639620005D972198
:1012C000095D490008439821095D89000843992177
:1012D000095DC90008439A21095D090108439B2162
:1012E000095D490108439C21095D890108439D214D
:1012F000095DC90108439E21095D090208439F2138
:10130000095D49020843A021095D89020843A12122
:10131000095DC90208430349C863034801494031D4
:10132000086010BD800C0140FECA000010B50446E4
:10133000E4212046FEF715FF10BD000070B5BAB0DD
:101340003D4C3E4D002601A8FFF7F0FF08A886722D
:10135000012141720C2130A801714171701E399038
:10136000012108A8C1706846848000218185C1855B
:10137000018610A80580458008A84170417110A819
:10138000018118A881750121C1750021017641767E
:101390002820001B81B268460187601E81B2684622
:1013A0004187012110A8017300214173012181733C
:1013B0000021C173012101740021417418A8017436
:1013C0004174817420A881730121C17300210174CB
:1013D00001214174002181740121C174002128A8D8
:1013E0008171C1718174012120A88176C176017754
:1013F00041778177C177002118A8817730A80170E3
:10140000012120A841700021C170012118A8C177D5
:10141000002130A84170012120A8817000210171B4
:1014200001214171017001A8FFF796FC0448006A90
:10143000044908803AB070BDB80B000014050000E4
:10144000800C01400400002030B503462A4C2B4D8F
:10145000AC62EC052069626A002B0BD18008800029
:101460004C68204304251446AC4322468C68A400F3
:10147000224331E0012B0ED10C250446AC4320461B
:101480004C68A400204308251446AC4322468C68CF
:10149000E400224320E0022B0ED130250446AC4369
:1014A00020464C682401204310251446AC432246B4
:1014B0008C68240122430FE0032B0DD1C025044684
:1014C000AC4320464C68A401204320251446AC437D
:1014D00022468C686401224303252D020446AC4356
:1014E00020460C68240220430124A4072061626284
:1014F0000024024DAC6230BD837A000080000040C1
:101500000321016041600021816070473EB568465B
:10151000FFF7F6FF002400200090012002900194C4
:1015200069460020FFF790FF69460120FFF78CFF16
:1015300069460220FFF788FF69460320FFF784FF12
:101540003EBD704708B5044840684107490F009107
:101550006846007808BD00000003014070477047EE
:1015600070470000094A0A4B9A62002905D0DA0543
:10157000526A0243DB055A6206E001229207526A70
:10158000824301239B075A6270470000837A000060
:1015900080000040094A0A4B9A62012904D11A4688
:1015A000D2690243DA6104E0054AD2698243044BFE
:1015B000DA610022024B9A6270470000837A0000D1
:1015C0008000004008B50021009103E000BF0099B1
:1015D000491C009100998142F8D308BD704700B5BD
:1015E000FFF770F800BD00000448006A04210843BA
:1015F0000249086201200249088070470006014044
:1016000008000020704770477047002905D0026825
:101610000123DB071A43026003E00268520052080C
:101620000260704770B505460C464048854204D1BB
:1016300001211020FFF7AEFF16E03D48854204D19E
:1016400001212020FFF7A6FF0EE03A48854204D191
:1016500001214020FFF79EFF06E03748854203D175
:1016600001218020FFF796FF2078400721790907A4
:101670000843E16EC9060843216F89060843217AB1
:1016800049060843217B09060843218AC905084306
:10169000A18A09050843218BC9040843A18B890449
:1016A0000843218C49040843A18C09040843A16A1A
:1016B00009030843E16AC9020843216B8902084310
:1016C000616B49020843A16B09020843E16B090100
:1016D0000843216CC9000843616C89000843A16C70
:1016E00049000843E16C08432860206D6860A06DE4
:1016F000E860E06D2861206E6861606EA861A06E90
:10170000E861606F4002A16F09020843E16FC901FF
:101710000843802109598900084384210959490057
:101720000843882109590843686270BD00060140DA
:10173000000701400008014000090140002101604C
:1017400041608160C160016141618161C16101628B
:1017500041628162C162016341638163C16301646B
:1017600041648164C164016541658165C16501664B
:1017700041668166C166016781674167C167002272
:1017800080210A5084210A5088210A5070470000A5
:1017900010B513480088002816D000201049088092
:1017A0000846C078401CC0B2C870022801D1002091
:1017B000C8700B488088401C80B209498880142872
:1017C0000CD10020888009E005488078002805D0E9
:1017D000002003498870034800F0FEF810BD0000A7
:1017E000080000201400002010B50B480B49886247
:1017F00001214803FFF7B6FE0948FEF7CFFC09496F
:1018000008800748001DFEF7C9FC064948800248C9
:1018100010300249886210BD837A000080000040C9
:10182000D014000000000020704700000B48006A40
:1018300010210840002805D00848006A08430749DD
:1018400008620AE00548006A20210840002804D008
:101850000248006A084301490862704700110140CC
:10186000FEB505460C463248854204D10121880365
:10187000FFF790FE06E02F48854203D10121C803FF
:10188000FFF788FE00272C482168FEF739FC791CF9
:101890000090FEF735FC064609E07F1C26482168CB
:1018A000FEF72EFC791C0090FEF72AFC0646234822
:1018B0008642F2D822488761761EF0B2A860FF20E7
:1018C00000023040000A6860E079012803D10190ED
:1018D0000020029009E0E079022803D10120019064
:1018E000029002E000200190029020796179490085
:1018F0000843A179890008430299C9000843019966
:1019000009010843217A49010843617A89010843A2
:10191000A17AC90108432860607C4000217C08430B
:101920006862A0892861E07BA861A07BE861FEBDB8
:10193000001001400011014000D8B805FFFF000071
:10194000800000404B21C9010160002101714171FB
:101950008171C171017241728172818181730174DF
:101960004174704700B585B06846FFF7EBFFE12092
:101970004002009000216846017141718171C1717E
:101980000221817369460248FFF76AFF05B000BD76
:101990000010014000B5A3B06846FFF7CFFE00205D
:1019A000119010900C900B900948149040101690D4
:1019B000179000201990059004201A906946054858
:1019C000FFF730FE01210348FFF71FFE23B000BDE3
:1019D00080BB000000060140F0B505460027FFF778
:1019E000B1FD0646A878B0422CD0002408E0FFF7ED
:1019F000A9FD0246964201D1781CC7B2601CC4B250
:101A0000042CF4DB022F1DDD0920002809DBC306AE
:101A1000DB0E012199400C4B1960BFF34F8FBFF3D0
:101A20006F8F00BF092000280ADB00BF00BFC3067C
:101A3000DB0E01219940044B803B196000BF00BFC1
:101A400000BF00BFF0BD000080E100E0704730B48F
:101A50007446641E2578641CAB4204D3635D5B004E
:101A6000E31830BC18471D46F8E70000002809DBE2
:101A700000BF00BFC206D20E01219140024A116090
:101A800000BF00BF7047000000E100E010B5002873
:101A900019DB1A4A03231B02D21883089B00D25871
:101AA0008307DC0EFF23A3409A438B071B0E84079A
:101AB000E40EA3401A43114B032424021B1984088B
:101AC000A4001A5118E00E4A03071B0F083B9B089D
:101AD0009B00D2588307DC0EFF23A3409A438B0759
:101AE0001B0E8407E40EA3401A43054B0407240F82
:101AF000083CA408A4001A5110BD000000E100E059
:101B00001CED00E002E008C8121F08C1002AFAD14B
:101B100070477047002001E001C1121F002AFBD16D
:101B20007047FFF7B7F800BFFFF732FEFCE7000091
:101B3000501B00000000002008000000041B0000F3
:101B4000581B00000800002070040000141B000057
:081B500000000000000000008D
:04000005000000C136
:00000001FF
